{
  "_format": "hh-sol-artifact-1",
  "contractName": "CrossChainMessage",
  "sourceName": "contracts/CrossChainMessage.sol",
  "abi": [
    {
      "inputs": [
        {
          "internalType": "address",
          "name": "connectorAddress",
          "type": "address"
        },
        {
          "internalType": "address",
          "name": "zetaTokenAddress",
          "type": "address"
        },
        {
          "internalType": "address",
          "name": "zetaConsumerAddress",
          "type": "address"
        }
      ],
      "stateMutability": "nonpayable",
      "type": "constructor"
    },
    {
      "inputs": [],
      "name": "BlockHeightInFuture",
      "type": "error"
    },
    {
      "inputs": [],
      "name": "GiveawayAlreadyCompleted",
      "type": "error"
    },
    {
      "inputs": [],
      "name": "InsufficientValueProvided",
      "type": "error"
    },
    {
      "inputs": [],
      "name": "InvalidAddress",
      "type": "error"
    },
    {
      "inputs": [
        {
          "internalType": "address",
          "name": "caller",
          "type": "address"
        }
      ],
      "name": "InvalidCaller",
      "type": "error"
    },
    {
      "inputs": [],
      "name": "InvalidDestinationChainId",
      "type": "error"
    },
    {
      "inputs": [],
      "name": "InvalidGiveawayID",
      "type": "error"
    },
    {
      "inputs": [],
      "name": "InvalidMessageType",
      "type": "error"
    },
    {
      "inputs": [],
      "name": "InvalidZetaMessageCall",
      "type": "error"
    },
    {
      "inputs": [],
      "name": "InvalidZetaRevertCall",
      "type": "error"
    },
    {
      "inputs": [],
      "name": "MaxParticipantsGreaterThanZero",
      "type": "error"
    },
    {
      "inputs": [],
      "name": "NFTContractAddressNotZero",
      "type": "error"
    },
    {
      "inputs": [],
      "name": "PrizeAmountGreaterThanZero",
      "type": "error"
    },
    {
      "inputs": [],
      "name": "UserDoesNotOwnRequiredNFT",
      "type": "error"
    },
    {
      "anonymous": false,
      "inputs": [
        {
          "indexed": true,
          "internalType": "address",
          "name": "participant",
          "type": "address"
        },
        {
          "indexed": false,
          "internalType": "uint256",
          "name": "giveawayId",
          "type": "uint256"
        }
      ],
      "name": "ClaimedGiveaway",
      "type": "event"
    },
    {
      "anonymous": false,
      "inputs": [
        {
          "indexed": false,
          "internalType": "uint256",
          "name": "messageType",
          "type": "uint256"
        },
        {
          "indexed": false,
          "internalType": "uint256",
          "name": "giveawayId",
          "type": "uint256"
        },
        {
          "indexed": false,
          "internalType": "address",
          "name": "nftContract",
          "type": "address"
        }
      ],
      "name": "CrossChainMessageEvent",
      "type": "event"
    },
    {
      "anonymous": false,
      "inputs": [
        {
          "indexed": false,
          "internalType": "string",
          "name": "",
          "type": "string"
        }
      ],
      "name": "CrossChainMessageRevertedEvent",
      "type": "event"
    },
    {
      "anonymous": false,
      "inputs": [
        {
          "indexed": true,
          "internalType": "address",
          "name": "creator",
          "type": "address"
        },
        {
          "indexed": false,
          "internalType": "uint256",
          "name": "blockHeight",
          "type": "uint256"
        },
        {
          "indexed": false,
          "internalType": "uint256",
          "name": "prizeAmount",
          "type": "uint256"
        },
        {
          "indexed": false,
          "internalType": "uint256",
          "name": "maxParticipants",
          "type": "uint256"
        },
        {
          "indexed": false,
          "internalType": "address",
          "name": "nftContract",
          "type": "address"
        },
        {
          "indexed": false,
          "internalType": "uint256",
          "name": "giveawayId",
          "type": "uint256"
        }
      ],
      "name": "GiveawayCreated",
      "type": "event"
    },
    {
      "anonymous": false,
      "inputs": [
        {
          "indexed": true,
          "internalType": "address",
          "name": "previousOwner",
          "type": "address"
        },
        {
          "indexed": true,
          "internalType": "address",
          "name": "newOwner",
          "type": "address"
        }
      ],
      "name": "OwnershipTransferStarted",
      "type": "event"
    },
    {
      "anonymous": false,
      "inputs": [
        {
          "indexed": true,
          "internalType": "address",
          "name": "previousOwner",
          "type": "address"
        },
        {
          "indexed": true,
          "internalType": "address",
          "name": "newOwner",
          "type": "address"
        }
      ],
      "name": "OwnershipTransferred",
      "type": "event"
    },
    {
      "anonymous": false,
      "inputs": [
        {
          "indexed": true,
          "internalType": "uint256",
          "name": "giveawayId",
          "type": "uint256"
        },
        {
          "indexed": true,
          "internalType": "address",
          "name": "participant",
          "type": "address"
        }
      ],
      "name": "Participation",
      "type": "event"
    },
    {
      "anonymous": false,
      "inputs": [
        {
          "indexed": false,
          "internalType": "uint256",
          "name": "giveawayId",
          "type": "uint256"
        },
        {
          "indexed": false,
          "internalType": "address",
          "name": "nftContract",
          "type": "address"
        }
      ],
      "name": "RequirementSet",
      "type": "event"
    },
    {
      "inputs": [],
      "name": "acceptOwnership",
      "outputs": [],
      "stateMutability": "nonpayable",
      "type": "function"
    },
    {
      "inputs": [],
      "name": "connector",
      "outputs": [
        {
          "internalType": "contract ZetaConnector",
          "name": "",
          "type": "address"
        }
      ],
      "stateMutability": "view",
      "type": "function"
    },
    {
      "inputs": [
        {
          "internalType": "uint256",
          "name": "blockHeight",
          "type": "uint256"
        },
        {
          "internalType": "uint256",
          "name": "prizeAmount",
          "type": "uint256"
        },
        {
          "internalType": "uint256",
          "name": "maxParticipants",
          "type": "uint256"
        },
        {
          "internalType": "address",
          "name": "nftContract",
          "type": "address"
        },
        {
          "internalType": "uint256",
          "name": "destinationChainId",
          "type": "uint256"
        },
        {
          "internalType": "string",
          "name": "title",
          "type": "string"
        }
      ],
      "name": "createGiveaway",
      "outputs": [],
      "stateMutability": "payable",
      "type": "function"
    },
    {
      "inputs": [
        {
          "internalType": "uint256",
          "name": "giveawayId",
          "type": "uint256"
        }
      ],
      "name": "distributeRewards",
      "outputs": [],
      "stateMutability": "nonpayable",
      "type": "function"
    },
    {
      "inputs": [
        {
          "internalType": "uint256",
          "name": "giveawayId",
          "type": "uint256"
        }
      ],
      "name": "getParticipants",
      "outputs": [
        {
          "internalType": "address[]",
          "name": "",
          "type": "address[]"
        }
      ],
      "stateMutability": "view",
      "type": "function"
    },
    {
      "inputs": [],
      "name": "giveawayCounter",
      "outputs": [
        {
          "internalType": "uint256",
          "name": "",
          "type": "uint256"
        }
      ],
      "stateMutability": "view",
      "type": "function"
    },
    {
      "inputs": [
        {
          "internalType": "uint256",
          "name": "",
          "type": "uint256"
        }
      ],
      "name": "giveaways",
      "outputs": [
        {
          "internalType": "address",
          "name": "creator",
          "type": "address"
        },
        {
          "internalType": "uint256",
          "name": "blockHeight",
          "type": "uint256"
        },
        {
          "internalType": "uint256",
          "name": "giveawayId",
          "type": "uint256"
        },
        {
          "internalType": "uint256",
          "name": "prizeAmount",
          "type": "uint256"
        },
        {
          "internalType": "uint256",
          "name": "maxParticipants",
          "type": "uint256"
        },
        {
          "internalType": "address",
          "name": "nftContract",
          "type": "address"
        },
        {
          "internalType": "bool",
          "name": "completed",
          "type": "bool"
        },
        {
          "internalType": "string",
          "name": "title",
          "type": "string"
        }
      ],
      "stateMutability": "view",
      "type": "function"
    },
    {
      "inputs": [
        {
          "internalType": "address",
          "name": "user",
          "type": "address"
        },
        {
          "internalType": "address",
          "name": "nftContract",
          "type": "address"
        }
      ],
      "name": "hasNFT",
      "outputs": [
        {
          "internalType": "bool",
          "name": "",
          "type": "bool"
        }
      ],
      "stateMutability": "view",
      "type": "function"
    },
    {
      "inputs": [
        {
          "internalType": "uint256",
          "name": "",
          "type": "uint256"
        }
      ],
      "name": "interactorsByChainId",
      "outputs": [
        {
          "internalType": "bytes",
          "name": "",
          "type": "bytes"
        }
      ],
      "stateMutability": "view",
      "type": "function"
    },
    {
      "inputs": [
        {
          "components": [
            {
              "internalType": "bytes",
              "name": "zetaTxSenderAddress",
              "type": "bytes"
            },
            {
              "internalType": "uint256",
              "name": "sourceChainId",
              "type": "uint256"
            },
            {
              "internalType": "address",
              "name": "destinationAddress",
              "type": "address"
            },
            {
              "internalType": "uint256",
              "name": "zetaValue",
              "type": "uint256"
            },
            {
              "internalType": "bytes",
              "name": "message",
              "type": "bytes"
            }
          ],
          "internalType": "struct ZetaInterfaces.ZetaMessage",
          "name": "zetaMessage",
          "type": "tuple"
        }
      ],
      "name": "onZetaMessage",
      "outputs": [],
      "stateMutability": "nonpayable",
      "type": "function"
    },
    {
      "inputs": [
        {
          "components": [
            {
              "internalType": "address",
              "name": "zetaTxSenderAddress",
              "type": "address"
            },
            {
              "internalType": "uint256",
              "name": "sourceChainId",
              "type": "uint256"
            },
            {
              "internalType": "bytes",
              "name": "destinationAddress",
              "type": "bytes"
            },
            {
              "internalType": "uint256",
              "name": "destinationChainId",
              "type": "uint256"
            },
            {
              "internalType": "uint256",
              "name": "remainingZetaValue",
              "type": "uint256"
            },
            {
              "internalType": "bytes",
              "name": "message",
              "type": "bytes"
            }
          ],
          "internalType": "struct ZetaInterfaces.ZetaRevert",
          "name": "zetaRevert",
          "type": "tuple"
        }
      ],
      "name": "onZetaRevert",
      "outputs": [],
      "stateMutability": "nonpayable",
      "type": "function"
    },
    {
      "inputs": [],
      "name": "owner",
      "outputs": [
        {
          "internalType": "address",
          "name": "",
          "type": "address"
        }
      ],
      "stateMutability": "view",
      "type": "function"
    },
    {
      "inputs": [
        {
          "internalType": "uint256",
          "name": "",
          "type": "uint256"
        }
      ],
      "name": "participantCounters",
      "outputs": [
        {
          "internalType": "uint256",
          "name": "",
          "type": "uint256"
        }
      ],
      "stateMutability": "view",
      "type": "function"
    },
    {
      "inputs": [
        {
          "internalType": "uint256",
          "name": "",
          "type": "uint256"
        },
        {
          "internalType": "uint256",
          "name": "",
          "type": "uint256"
        }
      ],
      "name": "participants",
      "outputs": [
        {
          "internalType": "address",
          "name": "",
          "type": "address"
        }
      ],
      "stateMutability": "view",
      "type": "function"
    },
    {
      "inputs": [
        {
          "internalType": "uint256",
          "name": "giveawayId",
          "type": "uint256"
        }
      ],
      "name": "participate",
      "outputs": [],
      "stateMutability": "payable",
      "type": "function"
    },
    {
      "inputs": [],
      "name": "pendingOwner",
      "outputs": [
        {
          "internalType": "address",
          "name": "",
          "type": "address"
        }
      ],
      "stateMutability": "view",
      "type": "function"
    },
    {
      "inputs": [],
      "name": "renounceOwnership",
      "outputs": [],
      "stateMutability": "nonpayable",
      "type": "function"
    },
    {
      "inputs": [
        {
          "internalType": "uint256",
          "name": "",
          "type": "uint256"
        }
      ],
      "name": "requirements",
      "outputs": [
        {
          "internalType": "address",
          "name": "",
          "type": "address"
        }
      ],
      "stateMutability": "view",
      "type": "function"
    },
    {
      "inputs": [
        {
          "internalType": "uint256",
          "name": "destinationChainId",
          "type": "uint256"
        },
        {
          "internalType": "bytes",
          "name": "contractAddress",
          "type": "bytes"
        }
      ],
      "name": "setInteractorByChainId",
      "outputs": [],
      "stateMutability": "nonpayable",
      "type": "function"
    },
    {
      "inputs": [
        {
          "internalType": "address",
          "name": "newOwner",
          "type": "address"
        }
      ],
      "name": "transferOwnership",
      "outputs": [],
      "stateMutability": "nonpayable",
      "type": "function"
    }
  ],
  "bytecode": "0x6101006040523480156200001257600080fd5b5060405162003364380380620033648339818101604052810190620000389190620002a1565b82620000596200004d6200018060201b60201c565b6200018860201b60201c565b600073ffffffffffffffffffffffffffffffffffffffff168173ffffffffffffffffffffffffffffffffffffffff161415620000c1576040517fe6c4247b00000000000000000000000000000000000000000000000000000000815260040160405180910390fd5b46608081815250508073ffffffffffffffffffffffffffffffffffffffff1660a08173ffffffffffffffffffffffffffffffffffffffff1660601b81525050508173ffffffffffffffffffffffffffffffffffffffff1660e08173ffffffffffffffffffffffffffffffffffffffff1660601b815250508073ffffffffffffffffffffffffffffffffffffffff1660c08173ffffffffffffffffffffffffffffffffffffffff1660601b81525050600060078190555050505062000350565b600033905090565b600160006101000a81549073ffffffffffffffffffffffffffffffffffffffff0219169055620001c381620001c660201b62001ae31760201c565b50565b60008060009054906101000a900473ffffffffffffffffffffffffffffffffffffffff169050816000806101000a81548173ffffffffffffffffffffffffffffffffffffffff021916908373ffffffffffffffffffffffffffffffffffffffff1602179055508173ffffffffffffffffffffffffffffffffffffffff168173ffffffffffffffffffffffffffffffffffffffff167f8be0079c531659141344cd1fd0a4f28419497f9722a3daafe3b4186f6b6457e060405160405180910390a35050565b6000815190506200029b8162000336565b92915050565b600080600060608486031215620002bd57620002bc62000331565b5b6000620002cd868287016200028a565b9350506020620002e0868287016200028a565b9250506040620002f3868287016200028a565b9150509250925092565b60006200030a8262000311565b9050919050565b600073ffffffffffffffffffffffffffffffffffffffff82169050919050565b600080fd5b6200034181620002fd565b81146200034d57600080fd5b50565b60805160a05160601c60c05160601c60e05160601c612f9c620003c8600039600081816109ca01528181610ee101526114db015260008181610ddd015261142b015260008181610f1d01528181610faf0152818161129101528181611517015281816115a90152611ba9015260005050612f9c6000f3fe60806040526004361061011f5760003560e01c806379ba5097116100a0578063a25a8f2311610064578063a25a8f23146103aa578063c1e3bd3e146103e7578063e30c397814610424578063f2fde38b1461044f578063f8b520b0146104785761011f565b806379ba5097146102e457806381fb1fb4146102fb57806383f3084f14610338578063845c9306146103635780638da5cb5b1461037f5761011f565b80633ff0693c116100e75780633ff0693c146102365780634fd3f7d71461025f57806359974e3814610288578063715018a6146102b157806373f0ecd6146102c85761011f565b806314780bb0146101245780631d5e9609146101615780632618143f1461018c5780633749c51a146101c95780633e06df3d146101f2575b600080fd5b34801561013057600080fd5b5061014b60048036038101906101469190612182565b6104b5565b604051610158919061293f565b60405180910390f35b34801561016d57600080fd5b506101766104cd565b604051610183919061293f565b60405180910390f35b34801561019857600080fd5b506101b360048036038101906101ae9190612182565b6104d3565b6040516101c091906127d0565b60405180910390f35b3480156101d557600080fd5b506101f060048036038101906101eb91906120f0565b610573565b005b3480156101fe57600080fd5b5061021960048036038101906102149190612182565b6106d2565b60405161022d98979695949392919061270e565b60405180910390f35b34801561024257600080fd5b5061025d60048036038101906102589190612139565b6107ef565b005b34801561026b57600080fd5b50610286600480360381019061028191906121dc565b6108cc565b005b34801561029457600080fd5b506102af60048036038101906102aa9190612182565b6108fc565b005b3480156102bd57600080fd5b506102c6610aef565b005b6102e260048036038101906102dd91906122cf565b610b03565b005b3480156102f057600080fd5b506102f96111c0565b005b34801561030757600080fd5b50610322600480360381019061031d919061223c565b61124d565b60405161032f91906126ca565b60405180910390f35b34801561034457600080fd5b5061034d61128f565b60405161035a91906127f2565b60405180910390f35b61037d60048036038101906103789190612182565b6112b3565b005b34801561038b57600080fd5b5061039461178c565b6040516103a191906126ca565b60405180910390f35b3480156103b657600080fd5b506103d160048036038101906103cc9190612182565b6117b5565b6040516103de91906126ca565b60405180910390f35b3480156103f357600080fd5b5061040e60048036038101906104099190612182565b6117e8565b60405161041b9190612793565b60405180910390f35b34801561043057600080fd5b5061043961190a565b60405161044691906126ca565b60405180910390f35b34801561045b57600080fd5b506104766004803603810190610471919061200d565b611934565b005b34801561048457600080fd5b5061049f600480360381019061049a919061203a565b6119e1565b6040516104ac91906127b5565b60405180910390f35b60066020528060005260406000206000915090505481565b60075481565b600260205280600052604060002060009150905080546104f290612cbb565b80601f016020809104026020016040519081016040528092919081815260200182805461051e90612cbb565b801561056b5780601f106105405761010080835404028352916020019161056b565b820191906000526020600020905b81548152906001019060200180831161054e57829003601f168201915b505050505081565b600080600083806080019061058891906129ad565b810190610595919061227c565b92509250925060018314156105fb57806004600084815260200190815260200160002060006101000a81548173ffffffffffffffffffffffffffffffffffffffff021916908373ffffffffffffffffffffffffffffffffffffffff1602179055506106cc565b600283141561069957600060066000848152602001908152602001600020600081548092919061062a90612d1e565b9190505590508160056000858152602001908152602001600020600083815260200190815260200160002060006101000a81548173ffffffffffffffffffffffffffffffffffffffff021916908373ffffffffffffffffffffffffffffffffffffffff160217905550506106cb565b6040517f5b60892f00000000000000000000000000000000000000000000000000000000815260040160405180910390fd5b5b50505050565b60036020528060005260406000206000915090508060000160009054906101000a900473ffffffffffffffffffffffffffffffffffffffff16908060010154908060020154908060030154908060040154908060050160009054906101000a900473ffffffffffffffffffffffffffffffffffffffff16908060050160149054906101000a900460ff169080600601805461076c90612cbb565b80601f016020809104026020016040519081016040528092919081815260200182805461079890612cbb565b80156107e55780601f106107ba576101008083540402835291602001916107e5565b820191906000526020600020905b8154815290600101906020018083116107c857829003601f168201915b5050505050905088565b806107f8611ba7565b3073ffffffffffffffffffffffffffffffffffffffff16816000016020810190610822919061200d565b73ffffffffffffffffffffffffffffffffffffffff161461086f576040517fc03e9c3f00000000000000000000000000000000000000000000000000000000815260040160405180910390fd5b6000828060a0019061088191906129ad565b81019061088e91906120a7565b90507f5e10fdf4af8efbf1252f727adce54e16f0d618219c3cb90d2b5fd1094bf7a7ea816040516108bf919061287b565b60405180910390a1505050565b6108d4611c39565b81816002600086815260200190815260200160002091906108f6929190611d77565b50505050565b60006003600083815260200190815260200160002090508060050160149054906101000a900460ff161561095c576040517fc6705d8e00000000000000000000000000000000000000000000000000000000815260040160405180910390fd5b60006006600084815260200190815260200160002054905060005b81811015610acc57600060056000868152602001908152602001600020600083815260200190815260200160002060009054906101000a900473ffffffffffffffffffffffffffffffffffffffff1690507f000000000000000000000000000000000000000000000000000000000000000073ffffffffffffffffffffffffffffffffffffffff1663a9059cbb8286600301546040518363ffffffff1660e01b8152600401610a279291906126e5565b602060405180830381600087803b158015610a4157600080fd5b505af1158015610a55573d6000803e3d6000fd5b505050506040513d601f19601f82011682018060405250810190610a79919061207a565b610ab8576040517f08c379a0000000000000000000000000000000000000000000000000000000008152600401610aaf906128bd565b60405180910390fd5b508080610ac490612d1e565b915050610977565b5060018260050160146101000a81548160ff021916908315150217905550505050565b610af7611c39565b610b016000611cb7565b565b438611610b3c576040517ffb0bdf4100000000000000000000000000000000000000000000000000000000815260040160405180910390fd5b60008511610b76576040517ffc13a0f600000000000000000000000000000000000000000000000000000000815260040160405180910390fd5b60008411610bb0576040517fedd80a0c00000000000000000000000000000000000000000000000000000000815260040160405180910390fd5b600073ffffffffffffffffffffffffffffffffffffffff168373ffffffffffffffffffffffffffffffffffffffff161415610c17576040517f42ca7db300000000000000000000000000000000000000000000000000000000815260040160405180910390fd5b610c2082611ce8565b610c56576040517f90eaaa7000000000000000000000000000000000000000000000000000000000815260040160405180910390fd5b6040518061010001604052803373ffffffffffffffffffffffffffffffffffffffff16815260200187815260200160075481526020018681526020018581526020018473ffffffffffffffffffffffffffffffffffffffff1681526020016000151581526020018281525060036000600754815260200190815260200160002060008201518160000160006101000a81548173ffffffffffffffffffffffffffffffffffffffff021916908373ffffffffffffffffffffffffffffffffffffffff1602179055506020820151816001015560408201518160020155606082015181600301556080820151816004015560a08201518160050160006101000a81548173ffffffffffffffffffffffffffffffffffffffff021916908373ffffffffffffffffffffffffffffffffffffffff16021790555060c08201518160050160146101000a81548160ff02191690831515021790555060e0820151816006019080519060200190610dc8929190611dfd565b5090505060006729a2241af62c0000905060007f000000000000000000000000000000000000000000000000000000000000000073ffffffffffffffffffffffffffffffffffffffff1663013b2ff83430856040518463ffffffff1660e01b8152600401610e379291906126e5565b6020604051808303818588803b158015610e5057600080fd5b505af1158015610e64573d6000803e3d6000fd5b50505050506040513d601f19601f82011682018060405250810190610e8991906121af565b905060008688610e999190612b5e565b83610ea49190612b08565b9050803411610edf576040517fc43c9bbd00000000000000000000000000000000000000000000000000000000815260040160405180910390fd5b7f000000000000000000000000000000000000000000000000000000000000000073ffffffffffffffffffffffffffffffffffffffff1663095ea7b37f0000000000000000000000000000000000000000000000000000000000000000846040518363ffffffff1660e01b8152600401610f5a9291906126e5565b602060405180830381600087803b158015610f7457600080fd5b505af1158015610f88573d6000803e3d6000fd5b505050506040513d601f19601f82011682018060405250810190610fac919061207a565b507f000000000000000000000000000000000000000000000000000000000000000073ffffffffffffffffffffffffffffffffffffffff1663ec0269016040518060c00160405280888152602001600260008a8152602001908152602001600020805461101890612cbb565b80601f016020809104026020016040519081016040528092919081815260200182805461104490612cbb565b80156110915780601f1061106657610100808354040283529160200191611091565b820191906000526020600020905b81548152906001019060200180831161107457829003601f168201915b50505050508152602001620493e0815260200160016007548b6040516020016110bc9392919061280d565b60405160208183030381529060405281526020018581526020016040516020016110e5906128fd565b6040516020818303038152906040528152506040518263ffffffff1660e01b8152600401611113919061291d565b600060405180830381600087803b15801561112d57600080fd5b505af1158015611141573d6000803e3d6000fd5b505050503373ffffffffffffffffffffffffffffffffffffffff167fa31b176d4dc2db03eb650f8afd4b02088ed6b1f7aa0a190c0c1833d124ffe2128a8a8a8a60075460405161119595949392919061295a565b60405180910390a2600760008154809291906111b090612d1e565b9190505550505050505050505050565b60006111ca611d6f565b90508073ffffffffffffffffffffffffffffffffffffffff166111eb61190a565b73ffffffffffffffffffffffffffffffffffffffff1614611241576040517f08c379a00000000000000000000000000000000000000000000000000000000081526004016112389061289d565b60405180910390fd5b61124a81611cb7565b50565b60056020528160005260406000206020528060005260406000206000915091509054906101000a900473ffffffffffffffffffffffffffffffffffffffff1681565b7f000000000000000000000000000000000000000000000000000000000000000081565b60006004600083815260200190815260200160002060009054906101000a900473ffffffffffffffffffffffffffffffffffffffff169050600073ffffffffffffffffffffffffffffffffffffffff168173ffffffffffffffffffffffffffffffffffffffff161415611352576040517f7418493200000000000000000000000000000000000000000000000000000000815260040160405180910390fd5b600081905060008173ffffffffffffffffffffffffffffffffffffffff166370a08231336040518263ffffffff1660e01b815260040161139291906126ca565b60206040518083038186803b1580156113aa57600080fd5b505afa1580156113be573d6000803e3d6000fd5b505050506040513d601f19601f820116820180604052508101906113e291906121af565b141561141a576040517f250a3b6100000000000000000000000000000000000000000000000000000000815260040160405180910390fd5b6000671bc16d674ec80000905060007f000000000000000000000000000000000000000000000000000000000000000073ffffffffffffffffffffffffffffffffffffffff1663013b2ff83430856040518463ffffffff1660e01b81526004016114859291906126e5565b6020604051808303818588803b15801561149e57600080fd5b505af11580156114b2573d6000803e3d6000fd5b50505050506040513d601f19601f820116820180604052508101906114d791906121af565b90507f000000000000000000000000000000000000000000000000000000000000000073ffffffffffffffffffffffffffffffffffffffff1663095ea7b37f0000000000000000000000000000000000000000000000000000000000000000836040518363ffffffff1660e01b81526004016115549291906126e5565b602060405180830381600087803b15801561156e57600080fd5b505af1158015611582573d6000803e3d6000fd5b505050506040513d601f19601f820116820180604052508101906115a6919061207a565b507f000000000000000000000000000000000000000000000000000000000000000073ffffffffffffffffffffffffffffffffffffffff1663ec0269016040518060c00160405280611b59815260200160026000611b598152602001908152602001600020805461161690612cbb565b80601f016020809104026020016040519081016040528092919081815260200182805461164290612cbb565b801561168f5780601f106116645761010080835404028352916020019161168f565b820191906000526020600020905b81548152906001019060200180831161167257829003601f168201915b50505050508152602001620493e08152602001600289336040516020016116b893929190612844565b60405160208183030381529060405281526020018481526020016040516020016116e1906128fd565b6040516020818303038152906040528152506040518263ffffffff1660e01b815260040161170f919061291d565b600060405180830381600087803b15801561172957600080fd5b505af115801561173d573d6000803e3d6000fd5b505050503373ffffffffffffffffffffffffffffffffffffffff16857f1f0f4be2dd0b92ad2d02b91e2ba37906104ff41f524d16b6da2b09068cc57e7160405160405180910390a35050505050565b60008060009054906101000a900473ffffffffffffffffffffffffffffffffffffffff16905090565b60046020528060005260406000206000915054906101000a900473ffffffffffffffffffffffffffffffffffffffff1681565b606060006006600084815260200190815260200160002054905060008167ffffffffffffffff81111561181e5761181d612df4565b5b60405190808252806020026020018201604052801561184c5781602001602082028036833780820191505090505b50905060005b828110156118ff5760056000868152602001908152602001600020600082815260200190815260200160002060009054906101000a900473ffffffffffffffffffffffffffffffffffffffff168282815181106118b2576118b1612dc5565b5b602002602001019073ffffffffffffffffffffffffffffffffffffffff16908173ffffffffffffffffffffffffffffffffffffffff168152505080806118f790612d1e565b915050611852565b508092505050919050565b6000600160009054906101000a900473ffffffffffffffffffffffffffffffffffffffff16905090565b61193c611c39565b80600160006101000a81548173ffffffffffffffffffffffffffffffffffffffff021916908373ffffffffffffffffffffffffffffffffffffffff1602179055508073ffffffffffffffffffffffffffffffffffffffff1661199c61178c565b73ffffffffffffffffffffffffffffffffffffffff167f38d16b8cac22d99fc7c124b9cd0de2d3fa1faef420bfe791d8c362d765e2270060405160405180910390a350565b60008073ffffffffffffffffffffffffffffffffffffffff168273ffffffffffffffffffffffffffffffffffffffff161415611a49576040517f42ca7db300000000000000000000000000000000000000000000000000000000815260040160405180910390fd5b600082905060008173ffffffffffffffffffffffffffffffffffffffff166370a08231866040518263ffffffff1660e01b8152600401611a8991906126ca565b60206040518083038186803b158015611aa157600080fd5b505afa158015611ab5573d6000803e3d6000fd5b505050506040513d601f19601f82011682018060405250810190611ad991906121af565b1191505092915050565b60008060009054906101000a900473ffffffffffffffffffffffffffffffffffffffff169050816000806101000a81548173ffffffffffffffffffffffffffffffffffffffff021916908373ffffffffffffffffffffffffffffffffffffffff1602179055508173ffffffffffffffffffffffffffffffffffffffff168173ffffffffffffffffffffffffffffffffffffffff167f8be0079c531659141344cd1fd0a4f28419497f9722a3daafe3b4186f6b6457e060405160405180910390a35050565b7f000000000000000000000000000000000000000000000000000000000000000073ffffffffffffffffffffffffffffffffffffffff163373ffffffffffffffffffffffffffffffffffffffff1614611c3757336040517fcbd9d2e0000000000000000000000000000000000000000000000000000000008152600401611c2e91906126ca565b60405180910390fd5b565b611c41611d6f565b73ffffffffffffffffffffffffffffffffffffffff16611c5f61178c565b73ffffffffffffffffffffffffffffffffffffffff1614611cb5576040517f08c379a0000000000000000000000000000000000000000000000000000000008152600401611cac906128dd565b60405180910390fd5b565b600160006101000a81549073ffffffffffffffffffffffffffffffffffffffff0219169055611ce581611ae3565b50565b60008067ffffffffffffffff811115611d0457611d03612df4565b5b6040519080825280601f01601f191660200182016040528015611d365781602001600182028036833780820191505090505b508051906020012060026000848152602001908152602001600020604051611d5e91906126b3565b604051809103902014159050919050565b600033905090565b828054611d8390612cbb565b90600052602060002090601f016020900481019282611da55760008555611dec565b82601f10611dbe57803560ff1916838001178555611dec565b82800160010185558215611dec579182015b82811115611deb578235825591602001919060010190611dd0565b5b509050611df99190611e83565b5090565b828054611e0990612cbb565b90600052602060002090601f016020900481019282611e2b5760008555611e72565b82601f10611e4457805160ff1916838001178555611e72565b82800160010185558215611e72579182015b82811115611e71578251825591602001919060010190611e56565b5b509050611e7f9190611e83565b5090565b5b80821115611e9c576000816000905550600101611e84565b5090565b6000611eb3611eae84612a35565b612a10565b905082815260208101848484011115611ecf57611ece612e46565b5b611eda848285612c79565b509392505050565b600081359050611ef181612f0a565b92915050565b600081359050611f0681612f21565b92915050565b600081519050611f1b81612f38565b92915050565b60008083601f840112611f3757611f36612e28565b5b8235905067ffffffffffffffff811115611f5457611f53612e23565b5b602083019150836001820283011115611f7057611f6f612e3c565b5b9250929050565b600082601f830112611f8c57611f8b612e28565b5b8135611f9c848260208601611ea0565b91505092915050565b600060a08284031215611fbb57611fba612e32565b5b81905092915050565b600060c08284031215611fda57611fd9612e32565b5b81905092915050565b600081359050611ff281612f4f565b92915050565b60008151905061200781612f4f565b92915050565b60006020828403121561202357612022612e50565b5b600061203184828501611ee2565b91505092915050565b6000806040838503121561205157612050612e50565b5b600061205f85828601611ee2565b925050602061207085828601611ee2565b9150509250929050565b6000602082840312156120905761208f612e50565b5b600061209e84828501611f0c565b91505092915050565b6000602082840312156120bd576120bc612e50565b5b600082013567ffffffffffffffff8111156120db576120da612e4b565b5b6120e784828501611f77565b91505092915050565b60006020828403121561210657612105612e50565b5b600082013567ffffffffffffffff81111561212457612123612e4b565b5b61213084828501611fa5565b91505092915050565b60006020828403121561214f5761214e612e50565b5b600082013567ffffffffffffffff81111561216d5761216c612e4b565b5b61217984828501611fc4565b91505092915050565b60006020828403121561219857612197612e50565b5b60006121a684828501611fe3565b91505092915050565b6000602082840312156121c5576121c4612e50565b5b60006121d384828501611ff8565b91505092915050565b6000806000604084860312156121f5576121f4612e50565b5b600061220386828701611fe3565b935050602084013567ffffffffffffffff81111561222457612223612e4b565b5b61223086828701611f21565b92509250509250925092565b6000806040838503121561225357612252612e50565b5b600061226185828601611fe3565b925050602061227285828601611fe3565b9150509250929050565b60008060006060848603121561229557612294612e50565b5b60006122a386828701611fe3565b93505060206122b486828701611fe3565b92505060406122c586828701611ef7565b9150509250925092565b60008060008060008060c087890312156122ec576122eb612e50565b5b60006122fa89828a01611fe3565b965050602061230b89828a01611fe3565b955050604061231c89828a01611fe3565b945050606061232d89828a01611ee2565b935050608061233e89828a01611fe3565b92505060a087013567ffffffffffffffff81111561235f5761235e612e4b565b5b61236b89828a01611f77565b9150509295509295509295565b60006123848383612390565b60208301905092915050565b61239981612bb8565b82525050565b6123a881612bb8565b82525050565b60006123b982612a8b565b6123c38185612ab9565b93506123ce83612a66565b8060005b838110156123ff5781516123e68882612378565b97506123f183612aac565b9250506001810190506123d2565b5085935050505092915050565b61241581612bdc565b82525050565b600061242682612a96565b6124308185612aca565b9350612440818560208601612c88565b61244981612e55565b840191505092915050565b600061245f82612a96565b6124698185612adb565b9350612479818560208601612c88565b61248281612e55565b840191505092915050565b6000815461249a81612cbb565b6124a48186612aec565b945060018216600081146124bf57600181146124d057612503565b60ff19831686528186019350612503565b6124d985612a76565b60005b838110156124fb578154818901526001820191506020810190506124dc565b838801955050505b50505092915050565b61251581612c1f565b82525050565b61252481612c31565b82525050565b61253381612c43565b82525050565b600061254482612aa1565b61254e8185612af7565b935061255e818560208601612c88565b61256781612e55565b840191505092915050565b600061257f602983612af7565b915061258a82612e66565b604082019050919050565b60006125a2600f83612af7565b91506125ad82612eb5565b602082019050919050565b60006125c5602083612af7565b91506125d082612ede565b602082019050919050565b60006125e8600083612af7565b91506125f382612f07565b600082019050919050565b600060c0830160008301516126166000860182612695565b506020830151848203602086015261262e828261241b565b91505060408301516126436040860182612695565b506060830151848203606086015261265b828261241b565b91505060808301516126706080860182612695565b5060a083015184820360a0860152612688828261241b565b9150508091505092915050565b61269e81612c08565b82525050565b6126ad81612c08565b82525050565b60006126bf828461248d565b915081905092915050565b60006020820190506126df600083018461239f565b92915050565b60006040820190506126fa600083018561239f565b61270760208301846126a4565b9392505050565b600061010082019050612724600083018b61239f565b612731602083018a6126a4565b61273e60408301896126a4565b61274b60608301886126a4565b61275860808301876126a4565b61276560a083018661239f565b61277260c083018561240c565b81810360e08301526127848184612539565b90509998505050505050505050565b600060208201905081810360008301526127ad81846123ae565b905092915050565b60006020820190506127ca600083018461240c565b92915050565b600060208201905081810360008301526127ea8184612454565b905092915050565b6000602082019050612807600083018461250c565b92915050565b6000606082019050612822600083018661251b565b61282f60208301856126a4565b61283c604083018461239f565b949350505050565b6000606082019050612859600083018661252a565b61286660208301856126a4565b612873604083018461239f565b949350505050565b600060208201905081810360008301526128958184612539565b905092915050565b600060208201905081810360008301526128b681612572565b9050919050565b600060208201905081810360008301526128d681612595565b9050919050565b600060208201905081810360008301526128f6816125b8565b9050919050565b60006020820190508181036000830152612916816125db565b9050919050565b6000602082019050818103600083015261293781846125fe565b905092915050565b600060208201905061295460008301846126a4565b92915050565b600060a08201905061296f60008301886126a4565b61297c60208301876126a4565b61298960408301866126a4565b612996606083018561239f565b6129a360808301846126a4565b9695505050505050565b600080833560016020038436030381126129ca576129c9612e37565b5b80840192508235915067ffffffffffffffff8211156129ec576129eb612e2d565b5b602083019250600182023603831315612a0857612a07612e41565b5b509250929050565b6000612a1a612a2b565b9050612a268282612ced565b919050565b6000604051905090565b600067ffffffffffffffff821115612a5057612a4f612df4565b5b612a5982612e55565b9050602081019050919050565b6000819050602082019050919050565b60008190508160005260206000209050919050565b600081519050919050565b600081519050919050565b600081519050919050565b6000602082019050919050565b600082825260208201905092915050565b600082825260208201905092915050565b600082825260208201905092915050565b600081905092915050565b600082825260208201905092915050565b6000612b1382612c08565b9150612b1e83612c08565b9250827fffffffffffffffffffffffffffffffffffffffffffffffffffffffffffffffff03821115612b5357612b52612d67565b5b828201905092915050565b6000612b6982612c08565b9150612b7483612c08565b9250817fffffffffffffffffffffffffffffffffffffffffffffffffffffffffffffffff0483118215151615612bad57612bac612d67565b5b828202905092915050565b6000612bc382612be8565b9050919050565b6000612bd582612be8565b9050919050565b60008115159050919050565b600073ffffffffffffffffffffffffffffffffffffffff82169050919050565b6000819050919050565b600060ff82169050919050565b6000612c2a82612c55565b9050919050565b6000612c3c82612c12565b9050919050565b6000612c4e82612c12565b9050919050565b6000612c6082612c67565b9050919050565b6000612c7282612be8565b9050919050565b82818337600083830152505050565b60005b83811015612ca6578082015181840152602081019050612c8b565b83811115612cb5576000848401525b50505050565b60006002820490506001821680612cd357607f821691505b60208210811415612ce757612ce6612d96565b5b50919050565b612cf682612e55565b810181811067ffffffffffffffff82111715612d1557612d14612df4565b5b80604052505050565b6000612d2982612c08565b91507fffffffffffffffffffffffffffffffffffffffffffffffffffffffffffffffff821415612d5c57612d5b612d67565b5b600182019050919050565b7f4e487b7100000000000000000000000000000000000000000000000000000000600052601160045260246000fd5b7f4e487b7100000000000000000000000000000000000000000000000000000000600052602260045260246000fd5b7f4e487b7100000000000000000000000000000000000000000000000000000000600052603260045260246000fd5b7f4e487b7100000000000000000000000000000000000000000000000000000000600052604160045260246000fd5b600080fd5b600080fd5b600080fd5b600080fd5b600080fd5b600080fd5b600080fd5b600080fd5b600080fd5b600080fd5b6000601f19601f8301169050919050565b7f4f776e61626c6532537465703a2063616c6c6572206973206e6f74207468652060008201527f6e6577206f776e65720000000000000000000000000000000000000000000000602082015250565b7f5472616e73666572206661696c65640000000000000000000000000000000000600082015250565b7f4f776e61626c653a2063616c6c6572206973206e6f7420746865206f776e6572600082015250565b50565b612f1381612bb8565b8114612f1e57600080fd5b50565b612f2a81612bca565b8114612f3557600080fd5b50565b612f4181612bdc565b8114612f4c57600080fd5b50565b612f5881612c08565b8114612f6357600080fd5b5056fea26469706673582212206a03d7f7e725b65adde88c1d5f99b5de1c8e3f0e4bbf6b3ff3663af931e69d9064736f6c63430008070033",
  "linkReferences": {},
  "deployedLinkReferences": {}
}