{
  "_format": "hh-sol-artifact-1",
  "contractName": "CrossChainMessage",
  "sourceName": "contracts/CrossChainMessage.sol",
  "abi": [
    {
      "inputs": [
        {
          "internalType": "address",
          "name": "connectorAddress",
          "type": "address"
        },
        {
          "internalType": "address",
          "name": "zetaTokenAddress",
          "type": "address"
        },
        {
          "internalType": "address",
          "name": "zetaConsumerAddress",
          "type": "address"
        }
      ],
      "stateMutability": "nonpayable",
      "type": "constructor"
    },
    {
      "inputs": [],
      "name": "BlockHeightInFuture",
      "type": "error"
    },
    {
      "inputs": [],
      "name": "InsufficientValueProvided",
      "type": "error"
    },
    {
      "inputs": [],
      "name": "InvalidAddress",
      "type": "error"
    },
    {
      "inputs": [
        {
          "internalType": "address",
          "name": "caller",
          "type": "address"
        }
      ],
      "name": "InvalidCaller",
      "type": "error"
    },
    {
      "inputs": [],
      "name": "InvalidDestinationChainId",
      "type": "error"
    },
    {
      "inputs": [],
      "name": "InvalidGiveawayID",
      "type": "error"
    },
    {
      "inputs": [],
      "name": "InvalidMessageType",
      "type": "error"
    },
    {
      "inputs": [],
      "name": "InvalidZetaMessageCall",
      "type": "error"
    },
    {
      "inputs": [],
      "name": "InvalidZetaRevertCall",
      "type": "error"
    },
    {
      "inputs": [],
      "name": "MaxParticipantsGreaterThanZero",
      "type": "error"
    },
    {
      "inputs": [],
      "name": "NFTContractAddressNotZero",
      "type": "error"
    },
    {
      "inputs": [],
      "name": "PrizeAmountGreaterThanZero",
      "type": "error"
    },
    {
      "inputs": [],
      "name": "UserDoesNotOwnRequiredNFT",
      "type": "error"
    },
    {
      "anonymous": false,
      "inputs": [
        {
          "indexed": true,
          "internalType": "address",
          "name": "participant",
          "type": "address"
        },
        {
          "indexed": false,
          "internalType": "uint256",
          "name": "giveawayId",
          "type": "uint256"
        }
      ],
      "name": "ClaimedGiveaway",
      "type": "event"
    },
    {
      "anonymous": false,
      "inputs": [
        {
          "indexed": false,
          "internalType": "uint256",
          "name": "messageType",
          "type": "uint256"
        },
        {
          "indexed": false,
          "internalType": "uint256",
          "name": "giveawayId",
          "type": "uint256"
        },
        {
          "indexed": false,
          "internalType": "address",
          "name": "nftContract",
          "type": "address"
        }
      ],
      "name": "CrossChainMessageEvent",
      "type": "event"
    },
    {
      "anonymous": false,
      "inputs": [
        {
          "indexed": false,
          "internalType": "string",
          "name": "",
          "type": "string"
        }
      ],
      "name": "CrossChainMessageRevertedEvent",
      "type": "event"
    },
    {
      "anonymous": false,
      "inputs": [
        {
          "indexed": true,
          "internalType": "address",
          "name": "creator",
          "type": "address"
        },
        {
          "indexed": false,
          "internalType": "uint256",
          "name": "blockHeight",
          "type": "uint256"
        },
        {
          "indexed": false,
          "internalType": "uint256",
          "name": "prizeAmount",
          "type": "uint256"
        },
        {
          "indexed": false,
          "internalType": "uint256",
          "name": "maxParticipants",
          "type": "uint256"
        },
        {
          "indexed": false,
          "internalType": "address",
          "name": "nftContract",
          "type": "address"
        },
        {
          "indexed": false,
          "internalType": "uint256",
          "name": "giveawayId",
          "type": "uint256"
        }
      ],
      "name": "GiveawayCreated",
      "type": "event"
    },
    {
      "anonymous": false,
      "inputs": [
        {
          "indexed": true,
          "internalType": "address",
          "name": "previousOwner",
          "type": "address"
        },
        {
          "indexed": true,
          "internalType": "address",
          "name": "newOwner",
          "type": "address"
        }
      ],
      "name": "OwnershipTransferStarted",
      "type": "event"
    },
    {
      "anonymous": false,
      "inputs": [
        {
          "indexed": true,
          "internalType": "address",
          "name": "previousOwner",
          "type": "address"
        },
        {
          "indexed": true,
          "internalType": "address",
          "name": "newOwner",
          "type": "address"
        }
      ],
      "name": "OwnershipTransferred",
      "type": "event"
    },
    {
      "anonymous": false,
      "inputs": [
        {
          "indexed": true,
          "internalType": "uint256",
          "name": "giveawayId",
          "type": "uint256"
        },
        {
          "indexed": true,
          "internalType": "address",
          "name": "participant",
          "type": "address"
        }
      ],
      "name": "Participation",
      "type": "event"
    },
    {
      "anonymous": false,
      "inputs": [
        {
          "indexed": false,
          "internalType": "uint256",
          "name": "giveawayId",
          "type": "uint256"
        },
        {
          "indexed": false,
          "internalType": "address",
          "name": "nftContract",
          "type": "address"
        }
      ],
      "name": "RequirementSet",
      "type": "event"
    },
    {
      "inputs": [],
      "name": "acceptOwnership",
      "outputs": [],
      "stateMutability": "nonpayable",
      "type": "function"
    },
    {
      "inputs": [],
      "name": "connector",
      "outputs": [
        {
          "internalType": "contract ZetaConnector",
          "name": "",
          "type": "address"
        }
      ],
      "stateMutability": "view",
      "type": "function"
    },
    {
      "inputs": [
        {
          "internalType": "uint256",
          "name": "blockHeight",
          "type": "uint256"
        },
        {
          "internalType": "uint256",
          "name": "prizeAmount",
          "type": "uint256"
        },
        {
          "internalType": "uint256",
          "name": "maxParticipants",
          "type": "uint256"
        },
        {
          "internalType": "address",
          "name": "nftContract",
          "type": "address"
        },
        {
          "internalType": "uint256",
          "name": "destinationChainId",
          "type": "uint256"
        }
      ],
      "name": "createGiveaway",
      "outputs": [],
      "stateMutability": "payable",
      "type": "function"
    },
    {
      "inputs": [
        {
          "internalType": "uint256",
          "name": "giveawayId",
          "type": "uint256"
        }
      ],
      "name": "distributeRewards",
      "outputs": [],
      "stateMutability": "nonpayable",
      "type": "function"
    },
    {
      "inputs": [
        {
          "internalType": "uint256",
          "name": "giveawayId",
          "type": "uint256"
        }
      ],
      "name": "getParticipants",
      "outputs": [
        {
          "internalType": "address[]",
          "name": "",
          "type": "address[]"
        }
      ],
      "stateMutability": "view",
      "type": "function"
    },
    {
      "inputs": [],
      "name": "giveawayCounter",
      "outputs": [
        {
          "internalType": "uint256",
          "name": "",
          "type": "uint256"
        }
      ],
      "stateMutability": "view",
      "type": "function"
    },
    {
      "inputs": [
        {
          "internalType": "uint256",
          "name": "",
          "type": "uint256"
        }
      ],
      "name": "giveaways",
      "outputs": [
        {
          "internalType": "address",
          "name": "creator",
          "type": "address"
        },
        {
          "internalType": "uint256",
          "name": "blockHeight",
          "type": "uint256"
        },
        {
          "internalType": "uint256",
          "name": "giveawayId",
          "type": "uint256"
        },
        {
          "internalType": "uint256",
          "name": "prizeAmount",
          "type": "uint256"
        },
        {
          "internalType": "uint256",
          "name": "maxParticipants",
          "type": "uint256"
        },
        {
          "internalType": "address",
          "name": "nftContract",
          "type": "address"
        }
      ],
      "stateMutability": "view",
      "type": "function"
    },
    {
      "inputs": [
        {
          "internalType": "address",
          "name": "user",
          "type": "address"
        },
        {
          "internalType": "address",
          "name": "nftContract",
          "type": "address"
        }
      ],
      "name": "hasNFT",
      "outputs": [
        {
          "internalType": "bool",
          "name": "",
          "type": "bool"
        }
      ],
      "stateMutability": "view",
      "type": "function"
    },
    {
      "inputs": [
        {
          "internalType": "uint256",
          "name": "",
          "type": "uint256"
        }
      ],
      "name": "interactorsByChainId",
      "outputs": [
        {
          "internalType": "bytes",
          "name": "",
          "type": "bytes"
        }
      ],
      "stateMutability": "view",
      "type": "function"
    },
    {
      "inputs": [
        {
          "components": [
            {
              "internalType": "bytes",
              "name": "zetaTxSenderAddress",
              "type": "bytes"
            },
            {
              "internalType": "uint256",
              "name": "sourceChainId",
              "type": "uint256"
            },
            {
              "internalType": "address",
              "name": "destinationAddress",
              "type": "address"
            },
            {
              "internalType": "uint256",
              "name": "zetaValue",
              "type": "uint256"
            },
            {
              "internalType": "bytes",
              "name": "message",
              "type": "bytes"
            }
          ],
          "internalType": "struct ZetaInterfaces.ZetaMessage",
          "name": "zetaMessage",
          "type": "tuple"
        }
      ],
      "name": "onZetaMessage",
      "outputs": [],
      "stateMutability": "nonpayable",
      "type": "function"
    },
    {
      "inputs": [
        {
          "components": [
            {
              "internalType": "address",
              "name": "zetaTxSenderAddress",
              "type": "address"
            },
            {
              "internalType": "uint256",
              "name": "sourceChainId",
              "type": "uint256"
            },
            {
              "internalType": "bytes",
              "name": "destinationAddress",
              "type": "bytes"
            },
            {
              "internalType": "uint256",
              "name": "destinationChainId",
              "type": "uint256"
            },
            {
              "internalType": "uint256",
              "name": "remainingZetaValue",
              "type": "uint256"
            },
            {
              "internalType": "bytes",
              "name": "message",
              "type": "bytes"
            }
          ],
          "internalType": "struct ZetaInterfaces.ZetaRevert",
          "name": "zetaRevert",
          "type": "tuple"
        }
      ],
      "name": "onZetaRevert",
      "outputs": [],
      "stateMutability": "nonpayable",
      "type": "function"
    },
    {
      "inputs": [],
      "name": "owner",
      "outputs": [
        {
          "internalType": "address",
          "name": "",
          "type": "address"
        }
      ],
      "stateMutability": "view",
      "type": "function"
    },
    {
      "inputs": [
        {
          "internalType": "uint256",
          "name": "",
          "type": "uint256"
        }
      ],
      "name": "participantCounters",
      "outputs": [
        {
          "internalType": "uint256",
          "name": "",
          "type": "uint256"
        }
      ],
      "stateMutability": "view",
      "type": "function"
    },
    {
      "inputs": [
        {
          "internalType": "uint256",
          "name": "",
          "type": "uint256"
        },
        {
          "internalType": "uint256",
          "name": "",
          "type": "uint256"
        }
      ],
      "name": "participants",
      "outputs": [
        {
          "internalType": "address",
          "name": "",
          "type": "address"
        }
      ],
      "stateMutability": "view",
      "type": "function"
    },
    {
      "inputs": [
        {
          "internalType": "uint256",
          "name": "giveawayId",
          "type": "uint256"
        }
      ],
      "name": "participate",
      "outputs": [],
      "stateMutability": "payable",
      "type": "function"
    },
    {
      "inputs": [],
      "name": "pendingOwner",
      "outputs": [
        {
          "internalType": "address",
          "name": "",
          "type": "address"
        }
      ],
      "stateMutability": "view",
      "type": "function"
    },
    {
      "inputs": [],
      "name": "renounceOwnership",
      "outputs": [],
      "stateMutability": "nonpayable",
      "type": "function"
    },
    {
      "inputs": [
        {
          "internalType": "uint256",
          "name": "",
          "type": "uint256"
        }
      ],
      "name": "requirements",
      "outputs": [
        {
          "internalType": "uint256",
          "name": "giveawayId",
          "type": "uint256"
        },
        {
          "internalType": "address",
          "name": "nftContract",
          "type": "address"
        }
      ],
      "stateMutability": "view",
      "type": "function"
    },
    {
      "inputs": [
        {
          "internalType": "uint256",
          "name": "destinationChainId",
          "type": "uint256"
        },
        {
          "internalType": "bytes",
          "name": "contractAddress",
          "type": "bytes"
        }
      ],
      "name": "setInteractorByChainId",
      "outputs": [],
      "stateMutability": "nonpayable",
      "type": "function"
    },
    {
      "inputs": [
        {
          "internalType": "address",
          "name": "newOwner",
          "type": "address"
        }
      ],
      "name": "transferOwnership",
      "outputs": [],
      "stateMutability": "nonpayable",
      "type": "function"
    }
  ],
  "bytecode": "0x6101006040523480156200001257600080fd5b5060405162003326380380620033268339818101604052810190620000389190620002a1565b82620000596200004d6200018060201b60201c565b6200018860201b60201c565b600073ffffffffffffffffffffffffffffffffffffffff168173ffffffffffffffffffffffffffffffffffffffff161415620000c1576040517fe6c4247b00000000000000000000000000000000000000000000000000000000815260040160405180910390fd5b46608081815250508073ffffffffffffffffffffffffffffffffffffffff1660a08173ffffffffffffffffffffffffffffffffffffffff1660601b81525050508173ffffffffffffffffffffffffffffffffffffffff1660e08173ffffffffffffffffffffffffffffffffffffffff1660601b815250508073ffffffffffffffffffffffffffffffffffffffff1660c08173ffffffffffffffffffffffffffffffffffffffff1660601b81525050600060078190555050505062000350565b600033905090565b600160006101000a81549073ffffffffffffffffffffffffffffffffffffffff0219169055620001c381620001c660201b62001b541760201c565b50565b60008060009054906101000a900473ffffffffffffffffffffffffffffffffffffffff169050816000806101000a81548173ffffffffffffffffffffffffffffffffffffffff021916908373ffffffffffffffffffffffffffffffffffffffff1602179055508173ffffffffffffffffffffffffffffffffffffffff168173ffffffffffffffffffffffffffffffffffffffff167f8be0079c531659141344cd1fd0a4f28419497f9722a3daafe3b4186f6b6457e060405160405180910390a35050565b6000815190506200029b8162000336565b92915050565b600080600060608486031215620002bd57620002bc62000331565b5b6000620002cd868287016200028a565b9350506020620002e0868287016200028a565b9250506040620002f3868287016200028a565b9150509250925092565b60006200030a8262000311565b9050919050565b600073ffffffffffffffffffffffffffffffffffffffff82169050919050565b600080fd5b6200034181620002fd565b81146200034d57600080fd5b50565b60805160a05160601c60c05160601c60e05160601c612f5e620003c860003960008181610903015281816110b2015261153b0152600081816107ff015261148b01526000818161093f015281816109d10152818161129f01528181611577015281816116090152611ca1015260005050612f5e6000f3fe60806040526004361061011f5760003560e01c806379ba5097116100a0578063a25a8f2311610064578063a25a8f23146103a8578063c1e3bd3e146103e6578063e30c397814610423578063f2fde38b1461044e578063f8b520b0146104775761011f565b806379ba5097146102e257806381fb1fb4146102f957806383f3084f14610336578063845c9306146103615780638da5cb5b1461037d5761011f565b80633e06df3d116100e75780633e06df3d1461020e5780633ff0693c146102505780634fd3f7d71461027957806359974e38146102a2578063715018a6146102cb5761011f565b806314780bb0146101245780631d5e9609146101615780632618143f1461018c57806337001185146101c95780633749c51a146101e5575b600080fd5b34801561013057600080fd5b5061014b6004803603810190610146919061216d565b6104b4565b60405161015891906128d8565b60405180910390f35b34801561016d57600080fd5b506101766104cc565b60405161018391906128d8565b60405180910390f35b34801561019857600080fd5b506101b360048036038101906101ae919061216d565b6104d2565b6040516101c09190612769565b60405180910390f35b6101e360048036038101906101de91906122ba565b610572565b005b3480156101f157600080fd5b5061020c600480360381019061020791906120db565b610be1565b005b34801561021a57600080fd5b506102356004803603810190610230919061216d565b610dc5565b604051610247969594939291906126cb565b60405180910390f35b34801561025c57600080fd5b5061027760048036038101906102729190612124565b610e41565b005b34801561028557600080fd5b506102a0600480360381019061029b91906121c7565b610f1e565b005b3480156102ae57600080fd5b506102c960048036038101906102c4919061216d565b610f4e565b005b3480156102d757600080fd5b506102e06111ba565b005b3480156102ee57600080fd5b506102f76111ce565b005b34801561030557600080fd5b50610320600480360381019061031b9190612227565b61125b565b60405161032d9190612687565b60405180910390f35b34801561034257600080fd5b5061034b61129d565b604051610358919061278b565b60405180910390f35b61037b6004803603810190610376919061216d565b6112c1565b005b34801561038957600080fd5b506103926117ec565b60405161039f9190612687565b60405180910390f35b3480156103b457600080fd5b506103cf60048036038101906103ca919061216d565b611815565b6040516103dd9291906128f3565b60405180910390f35b3480156103f257600080fd5b5061040d6004803603810190610408919061216d565b611859565b60405161041a919061272c565b60405180910390f35b34801561042f57600080fd5b5061043861197b565b6040516104459190612687565b60405180910390f35b34801561045a57600080fd5b5061047560048036038101906104709190611ff8565b6119a5565b005b34801561048357600080fd5b5061049e60048036038101906104999190612025565b611a52565b6040516104ab919061274e565b60405180910390f35b60066020528060005260406000206000915090505481565b60075481565b600260205280600052604060002060009150905080546104f190612c7d565b80601f016020809104026020016040519081016040528092919081815260200182805461051d90612c7d565b801561056a5780601f1061053f5761010080835404028352916020019161056a565b820191906000526020600020905b81548152906001019060200180831161054d57829003601f168201915b505050505081565b4385116105ab576040517ffb0bdf4100000000000000000000000000000000000000000000000000000000815260040160405180910390fd5b600084116105e5576040517ffc13a0f600000000000000000000000000000000000000000000000000000000815260040160405180910390fd5b6000831161061f576040517fedd80a0c00000000000000000000000000000000000000000000000000000000815260040160405180910390fd5b600073ffffffffffffffffffffffffffffffffffffffff168273ffffffffffffffffffffffffffffffffffffffff161415610686576040517f42ca7db300000000000000000000000000000000000000000000000000000000815260040160405180910390fd5b61068f81611c18565b6106c5576040517f90eaaa7000000000000000000000000000000000000000000000000000000000815260040160405180910390fd5b6040518060c001604052803373ffffffffffffffffffffffffffffffffffffffff16815260200186815260200160075481526020018581526020018481526020018373ffffffffffffffffffffffffffffffffffffffff1681525060036000600754815260200190815260200160002060008201518160000160006101000a81548173ffffffffffffffffffffffffffffffffffffffff021916908373ffffffffffffffffffffffffffffffffffffffff1602179055506020820151816001015560408201518160020155606082015181600301556080820151816004015560a08201518160050160006101000a81548173ffffffffffffffffffffffffffffffffffffffff021916908373ffffffffffffffffffffffffffffffffffffffff16021790555090505060006729a2241af62c0000905060007f000000000000000000000000000000000000000000000000000000000000000073ffffffffffffffffffffffffffffffffffffffff1663013b2ff83430856040518463ffffffff1660e01b81526004016108599291906126a2565b6020604051808303818588803b15801561087257600080fd5b505af1158015610886573d6000803e3d6000fd5b50505050506040513d601f19601f820116820180604052508101906108ab919061219a565b9050600085876108bb9190612b20565b836108c69190612aca565b9050803411610901576040517fc43c9bbd00000000000000000000000000000000000000000000000000000000815260040160405180910390fd5b7f000000000000000000000000000000000000000000000000000000000000000073ffffffffffffffffffffffffffffffffffffffff1663095ea7b37f0000000000000000000000000000000000000000000000000000000000000000846040518363ffffffff1660e01b815260040161097c9291906126a2565b602060405180830381600087803b15801561099657600080fd5b505af11580156109aa573d6000803e3d6000fd5b505050506040513d601f19601f820116820180604052508101906109ce9190612065565b507f000000000000000000000000000000000000000000000000000000000000000073ffffffffffffffffffffffffffffffffffffffff1663ec0269016040518060c00160405280878152602001600260008981526020019081526020016000208054610a3a90612c7d565b80601f0160208091040260200160405190810160405280929190818152602001828054610a6690612c7d565b8015610ab35780601f10610a8857610100808354040283529160200191610ab3565b820191906000526020600020905b815481529060010190602001808311610a9657829003601f168201915b50505050508152602001620493e0815260200160016007548a604051602001610ade939291906127a6565b6040516020818303038152906040528152602001858152602001604051602001610b0790612896565b6040516020818303038152906040528152506040518263ffffffff1660e01b8152600401610b3591906128b6565b600060405180830381600087803b158015610b4f57600080fd5b505af1158015610b63573d6000803e3d6000fd5b505050503373ffffffffffffffffffffffffffffffffffffffff167fa31b176d4dc2db03eb650f8afd4b02088ed6b1f7aa0a190c0c1833d124ffe21289898989600754604051610bb795949392919061291c565b60405180910390a260076000815480929190610bd290612ce0565b91905055505050505050505050565b6000818060800190610bf3919061296f565b810190610c00919061216d565b90506001811415610cc957600080838060800190610c1e919061296f565b810190610c2b9190612267565b925092505060405180604001604052808381526020018273ffffffffffffffffffffffffffffffffffffffff16815250600460008481526020019081526020016000206000820151816000015560208201518160010160006101000a81548173ffffffffffffffffffffffffffffffffffffffff021916908373ffffffffffffffffffffffffffffffffffffffff1602179055509050505050610dc1565b6002811415610d8e57600080838060800190610ce5919061296f565b810190610cf29190612267565b92509250506000600660008481526020019081526020016000206000815480929190610d1d90612ce0565b9190505590508160056000858152602001908152602001600020600083815260200190815260200160002060006101000a81548173ffffffffffffffffffffffffffffffffffffffff021916908373ffffffffffffffffffffffffffffffffffffffff160217905550505050610dc0565b6040517f5b60892f00000000000000000000000000000000000000000000000000000000815260040160405180910390fd5b5b5050565b60036020528060005260406000206000915090508060000160009054906101000a900473ffffffffffffffffffffffffffffffffffffffff16908060010154908060020154908060030154908060040154908060050160009054906101000a900473ffffffffffffffffffffffffffffffffffffffff16905086565b80610e4a611c9f565b3073ffffffffffffffffffffffffffffffffffffffff16816000016020810190610e749190611ff8565b73ffffffffffffffffffffffffffffffffffffffff1614610ec1576040517fc03e9c3f00000000000000000000000000000000000000000000000000000000815260040160405180910390fd5b6000828060a00190610ed3919061296f565b810190610ee09190612092565b90507f5e10fdf4af8efbf1252f727adce54e16f0d618219c3cb90d2b5fd1094bf7a7ea81604051610f119190612814565b60405180910390a1505050565b610f26611d31565b8181600260008681526020019081526020016000209190610f48929190611de8565b50505050565b6000600360008381526020019081526020016000206040518060c00160405290816000820160009054906101000a900473ffffffffffffffffffffffffffffffffffffffff1673ffffffffffffffffffffffffffffffffffffffff1673ffffffffffffffffffffffffffffffffffffffff168152602001600182015481526020016002820154815260200160038201548152602001600482015481526020016005820160009054906101000a900473ffffffffffffffffffffffffffffffffffffffff1673ffffffffffffffffffffffffffffffffffffffff1673ffffffffffffffffffffffffffffffffffffffff1681525050905060006006600084815260200190815260200160002054905060005b818110156111b457600060056000868152602001908152602001600020600083815260200190815260200160002060009054906101000a900473ffffffffffffffffffffffffffffffffffffffff1690507f000000000000000000000000000000000000000000000000000000000000000073ffffffffffffffffffffffffffffffffffffffff1663a9059cbb8286606001516040518363ffffffff1660e01b815260040161110f9291906126a2565b602060405180830381600087803b15801561112957600080fd5b505af115801561113d573d6000803e3d6000fd5b505050506040513d601f19601f820116820180604052508101906111619190612065565b6111a0576040517f08c379a000000000000000000000000000000000000000000000000000000000815260040161119790612856565b60405180910390fd5b5080806111ac90612ce0565b91505061105f565b50505050565b6111c2611d31565b6111cc6000611daf565b565b60006111d8611de0565b90508073ffffffffffffffffffffffffffffffffffffffff166111f961197b565b73ffffffffffffffffffffffffffffffffffffffff161461124f576040517f08c379a000000000000000000000000000000000000000000000000000000000815260040161124690612836565b60405180910390fd5b61125881611daf565b50565b60056020528160005260406000206020528060005260406000206000915091509054906101000a900473ffffffffffffffffffffffffffffffffffffffff1681565b7f000000000000000000000000000000000000000000000000000000000000000081565b600060046000838152602001908152602001600020604051806040016040529081600082015481526020016001820160009054906101000a900473ffffffffffffffffffffffffffffffffffffffff1673ffffffffffffffffffffffffffffffffffffffff1673ffffffffffffffffffffffffffffffffffffffff16815250509050600073ffffffffffffffffffffffffffffffffffffffff16816020015173ffffffffffffffffffffffffffffffffffffffff1614156113ae576040517f7418493200000000000000000000000000000000000000000000000000000000815260040160405180910390fd5b60008160200151905060008173ffffffffffffffffffffffffffffffffffffffff166370a08231336040518263ffffffff1660e01b81526004016113f29190612687565b60206040518083038186803b15801561140a57600080fd5b505afa15801561141e573d6000803e3d6000fd5b505050506040513d601f19601f82011682018060405250810190611442919061219a565b141561147a576040517f250a3b6100000000000000000000000000000000000000000000000000000000815260040160405180910390fd5b6000671bc16d674ec80000905060007f000000000000000000000000000000000000000000000000000000000000000073ffffffffffffffffffffffffffffffffffffffff1663013b2ff83430856040518463ffffffff1660e01b81526004016114e59291906126a2565b6020604051808303818588803b1580156114fe57600080fd5b505af1158015611512573d6000803e3d6000fd5b50505050506040513d601f19601f82011682018060405250810190611537919061219a565b90507f000000000000000000000000000000000000000000000000000000000000000073ffffffffffffffffffffffffffffffffffffffff1663095ea7b37f0000000000000000000000000000000000000000000000000000000000000000836040518363ffffffff1660e01b81526004016115b49291906126a2565b602060405180830381600087803b1580156115ce57600080fd5b505af11580156115e2573d6000803e3d6000fd5b505050506040513d601f19601f820116820180604052508101906116069190612065565b507f000000000000000000000000000000000000000000000000000000000000000073ffffffffffffffffffffffffffffffffffffffff1663ec0269016040518060c00160405280611b59815260200160026000611b598152602001908152602001600020805461167690612c7d565b80601f01602080910402602001604051908101604052809291908181526020018280546116a290612c7d565b80156116ef5780601f106116c4576101008083540402835291602001916116ef565b820191906000526020600020905b8154815290600101906020018083116116d257829003601f168201915b50505050508152602001620493e0815260200160028933604051602001611718939291906127dd565b604051602081830303815290604052815260200184815260200160405160200161174190612896565b6040516020818303038152906040528152506040518263ffffffff1660e01b815260040161176f91906128b6565b600060405180830381600087803b15801561178957600080fd5b505af115801561179d573d6000803e3d6000fd5b505050503373ffffffffffffffffffffffffffffffffffffffff16857f1f0f4be2dd0b92ad2d02b91e2ba37906104ff41f524d16b6da2b09068cc57e7160405160405180910390a35050505050565b60008060009054906101000a900473ffffffffffffffffffffffffffffffffffffffff16905090565b60046020528060005260406000206000915090508060000154908060010160009054906101000a900473ffffffffffffffffffffffffffffffffffffffff16905082565b606060006006600084815260200190815260200160002054905060008167ffffffffffffffff81111561188f5761188e612db6565b5b6040519080825280602002602001820160405280156118bd5781602001602082028036833780820191505090505b50905060005b828110156119705760056000868152602001908152602001600020600082815260200190815260200160002060009054906101000a900473ffffffffffffffffffffffffffffffffffffffff1682828151811061192357611922612d87565b5b602002602001019073ffffffffffffffffffffffffffffffffffffffff16908173ffffffffffffffffffffffffffffffffffffffff1681525050808061196890612ce0565b9150506118c3565b508092505050919050565b6000600160009054906101000a900473ffffffffffffffffffffffffffffffffffffffff16905090565b6119ad611d31565b80600160006101000a81548173ffffffffffffffffffffffffffffffffffffffff021916908373ffffffffffffffffffffffffffffffffffffffff1602179055508073ffffffffffffffffffffffffffffffffffffffff16611a0d6117ec565b73ffffffffffffffffffffffffffffffffffffffff167f38d16b8cac22d99fc7c124b9cd0de2d3fa1faef420bfe791d8c362d765e2270060405160405180910390a350565b60008073ffffffffffffffffffffffffffffffffffffffff168273ffffffffffffffffffffffffffffffffffffffff161415611aba576040517f42ca7db300000000000000000000000000000000000000000000000000000000815260040160405180910390fd5b600082905060008173ffffffffffffffffffffffffffffffffffffffff166370a08231866040518263ffffffff1660e01b8152600401611afa9190612687565b60206040518083038186803b158015611b1257600080fd5b505afa158015611b26573d6000803e3d6000fd5b505050506040513d601f19601f82011682018060405250810190611b4a919061219a565b1191505092915050565b60008060009054906101000a900473ffffffffffffffffffffffffffffffffffffffff169050816000806101000a81548173ffffffffffffffffffffffffffffffffffffffff021916908373ffffffffffffffffffffffffffffffffffffffff1602179055508173ffffffffffffffffffffffffffffffffffffffff168173ffffffffffffffffffffffffffffffffffffffff167f8be0079c531659141344cd1fd0a4f28419497f9722a3daafe3b4186f6b6457e060405160405180910390a35050565b60008067ffffffffffffffff811115611c3457611c33612db6565b5b6040519080825280601f01601f191660200182016040528015611c665781602001600182028036833780820191505090505b508051906020012060026000848152602001908152602001600020604051611c8e9190612670565b604051809103902014159050919050565b7f000000000000000000000000000000000000000000000000000000000000000073ffffffffffffffffffffffffffffffffffffffff163373ffffffffffffffffffffffffffffffffffffffff1614611d2f57336040517fcbd9d2e0000000000000000000000000000000000000000000000000000000008152600401611d269190612687565b60405180910390fd5b565b611d39611de0565b73ffffffffffffffffffffffffffffffffffffffff16611d576117ec565b73ffffffffffffffffffffffffffffffffffffffff1614611dad576040517f08c379a0000000000000000000000000000000000000000000000000000000008152600401611da490612876565b60405180910390fd5b565b600160006101000a81549073ffffffffffffffffffffffffffffffffffffffff0219169055611ddd81611b54565b50565b600033905090565b828054611df490612c7d565b90600052602060002090601f016020900481019282611e165760008555611e5d565b82601f10611e2f57803560ff1916838001178555611e5d565b82800160010185558215611e5d579182015b82811115611e5c578235825591602001919060010190611e41565b5b509050611e6a9190611e6e565b5090565b5b80821115611e87576000816000905550600101611e6f565b5090565b6000611e9e611e99846129f7565b6129d2565b905082815260208101848484011115611eba57611eb9612e08565b5b611ec5848285612c3b565b509392505050565b600081359050611edc81612ecc565b92915050565b600081359050611ef181612ee3565b92915050565b600081519050611f0681612efa565b92915050565b60008083601f840112611f2257611f21612dea565b5b8235905067ffffffffffffffff811115611f3f57611f3e612de5565b5b602083019150836001820283011115611f5b57611f5a612dfe565b5b9250929050565b600082601f830112611f7757611f76612dea565b5b8135611f87848260208601611e8b565b91505092915050565b600060a08284031215611fa657611fa5612df4565b5b81905092915050565b600060c08284031215611fc557611fc4612df4565b5b81905092915050565b600081359050611fdd81612f11565b92915050565b600081519050611ff281612f11565b92915050565b60006020828403121561200e5761200d612e12565b5b600061201c84828501611ecd565b91505092915050565b6000806040838503121561203c5761203b612e12565b5b600061204a85828601611ecd565b925050602061205b85828601611ecd565b9150509250929050565b60006020828403121561207b5761207a612e12565b5b600061208984828501611ef7565b91505092915050565b6000602082840312156120a8576120a7612e12565b5b600082013567ffffffffffffffff8111156120c6576120c5612e0d565b5b6120d284828501611f62565b91505092915050565b6000602082840312156120f1576120f0612e12565b5b600082013567ffffffffffffffff81111561210f5761210e612e0d565b5b61211b84828501611f90565b91505092915050565b60006020828403121561213a57612139612e12565b5b600082013567ffffffffffffffff81111561215857612157612e0d565b5b61216484828501611faf565b91505092915050565b60006020828403121561218357612182612e12565b5b600061219184828501611fce565b91505092915050565b6000602082840312156121b0576121af612e12565b5b60006121be84828501611fe3565b91505092915050565b6000806000604084860312156121e0576121df612e12565b5b60006121ee86828701611fce565b935050602084013567ffffffffffffffff81111561220f5761220e612e0d565b5b61221b86828701611f0c565b92509250509250925092565b6000806040838503121561223e5761223d612e12565b5b600061224c85828601611fce565b925050602061225d85828601611fce565b9150509250929050565b6000806000606084860312156122805761227f612e12565b5b600061228e86828701611fce565b935050602061229f86828701611fce565b92505060406122b086828701611ee2565b9150509250925092565b600080600080600060a086880312156122d6576122d5612e12565b5b60006122e488828901611fce565b95505060206122f588828901611fce565b945050604061230688828901611fce565b935050606061231788828901611ecd565b925050608061232888828901611fce565b9150509295509295909350565b6000612341838361234d565b60208301905092915050565b61235681612b7a565b82525050565b61236581612b7a565b82525050565b600061237682612a4d565b6123808185612a7b565b935061238b83612a28565b8060005b838110156123bc5781516123a38882612335565b97506123ae83612a6e565b92505060018101905061238f565b5085935050505092915050565b6123d281612b9e565b82525050565b60006123e382612a58565b6123ed8185612a8c565b93506123fd818560208601612c4a565b61240681612e17565b840191505092915050565b600061241c82612a58565b6124268185612a9d565b9350612436818560208601612c4a565b61243f81612e17565b840191505092915050565b6000815461245781612c7d565b6124618186612aae565b9450600182166000811461247c576001811461248d576124c0565b60ff198316865281860193506124c0565b61249685612a38565b60005b838110156124b857815481890152600182019150602081019050612499565b838801955050505b50505092915050565b6124d281612be1565b82525050565b6124e181612bf3565b82525050565b6124f081612c05565b82525050565b600061250182612a63565b61250b8185612ab9565b935061251b818560208601612c4a565b61252481612e17565b840191505092915050565b600061253c602983612ab9565b915061254782612e28565b604082019050919050565b600061255f600f83612ab9565b915061256a82612e77565b602082019050919050565b6000612582602083612ab9565b915061258d82612ea0565b602082019050919050565b60006125a5600083612ab9565b91506125b082612ec9565b600082019050919050565b600060c0830160008301516125d36000860182612652565b50602083015184820360208601526125eb82826123d8565b91505060408301516126006040860182612652565b506060830151848203606086015261261882826123d8565b915050608083015161262d6080860182612652565b5060a083015184820360a086015261264582826123d8565b9150508091505092915050565b61265b81612bca565b82525050565b61266a81612bca565b82525050565b600061267c828461244a565b915081905092915050565b600060208201905061269c600083018461235c565b92915050565b60006040820190506126b7600083018561235c565b6126c46020830184612661565b9392505050565b600060c0820190506126e0600083018961235c565b6126ed6020830188612661565b6126fa6040830187612661565b6127076060830186612661565b6127146080830185612661565b61272160a083018461235c565b979650505050505050565b60006020820190508181036000830152612746818461236b565b905092915050565b600060208201905061276360008301846123c9565b92915050565b600060208201905081810360008301526127838184612411565b905092915050565b60006020820190506127a060008301846124c9565b92915050565b60006060820190506127bb60008301866124d8565b6127c86020830185612661565b6127d5604083018461235c565b949350505050565b60006060820190506127f260008301866124e7565b6127ff6020830185612661565b61280c604083018461235c565b949350505050565b6000602082019050818103600083015261282e81846124f6565b905092915050565b6000602082019050818103600083015261284f8161252f565b9050919050565b6000602082019050818103600083015261286f81612552565b9050919050565b6000602082019050818103600083015261288f81612575565b9050919050565b600060208201905081810360008301526128af81612598565b9050919050565b600060208201905081810360008301526128d081846125bb565b905092915050565b60006020820190506128ed6000830184612661565b92915050565b60006040820190506129086000830185612661565b612915602083018461235c565b9392505050565b600060a0820190506129316000830188612661565b61293e6020830187612661565b61294b6040830186612661565b612958606083018561235c565b6129656080830184612661565b9695505050505050565b6000808335600160200384360303811261298c5761298b612df9565b5b80840192508235915067ffffffffffffffff8211156129ae576129ad612def565b5b6020830192506001820236038313156129ca576129c9612e03565b5b509250929050565b60006129dc6129ed565b90506129e88282612caf565b919050565b6000604051905090565b600067ffffffffffffffff821115612a1257612a11612db6565b5b612a1b82612e17565b9050602081019050919050565b6000819050602082019050919050565b60008190508160005260206000209050919050565b600081519050919050565b600081519050919050565b600081519050919050565b6000602082019050919050565b600082825260208201905092915050565b600082825260208201905092915050565b600082825260208201905092915050565b600081905092915050565b600082825260208201905092915050565b6000612ad582612bca565b9150612ae083612bca565b9250827fffffffffffffffffffffffffffffffffffffffffffffffffffffffffffffffff03821115612b1557612b14612d29565b5b828201905092915050565b6000612b2b82612bca565b9150612b3683612bca565b9250817fffffffffffffffffffffffffffffffffffffffffffffffffffffffffffffffff0483118215151615612b6f57612b6e612d29565b5b828202905092915050565b6000612b8582612baa565b9050919050565b6000612b9782612baa565b9050919050565b60008115159050919050565b600073ffffffffffffffffffffffffffffffffffffffff82169050919050565b6000819050919050565b600060ff82169050919050565b6000612bec82612c17565b9050919050565b6000612bfe82612bd4565b9050919050565b6000612c1082612bd4565b9050919050565b6000612c2282612c29565b9050919050565b6000612c3482612baa565b9050919050565b82818337600083830152505050565b60005b83811015612c68578082015181840152602081019050612c4d565b83811115612c77576000848401525b50505050565b60006002820490506001821680612c9557607f821691505b60208210811415612ca957612ca8612d58565b5b50919050565b612cb882612e17565b810181811067ffffffffffffffff82111715612cd757612cd6612db6565b5b80604052505050565b6000612ceb82612bca565b91507fffffffffffffffffffffffffffffffffffffffffffffffffffffffffffffffff821415612d1e57612d1d612d29565b5b600182019050919050565b7f4e487b7100000000000000000000000000000000000000000000000000000000600052601160045260246000fd5b7f4e487b7100000000000000000000000000000000000000000000000000000000600052602260045260246000fd5b7f4e487b7100000000000000000000000000000000000000000000000000000000600052603260045260246000fd5b7f4e487b7100000000000000000000000000000000000000000000000000000000600052604160045260246000fd5b600080fd5b600080fd5b600080fd5b600080fd5b600080fd5b600080fd5b600080fd5b600080fd5b600080fd5b600080fd5b6000601f19601f8301169050919050565b7f4f776e61626c6532537465703a2063616c6c6572206973206e6f74207468652060008201527f6e6577206f776e65720000000000000000000000000000000000000000000000602082015250565b7f5472616e73666572206661696c65640000000000000000000000000000000000600082015250565b7f4f776e61626c653a2063616c6c6572206973206e6f7420746865206f776e6572600082015250565b50565b612ed581612b7a565b8114612ee057600080fd5b50565b612eec81612b8c565b8114612ef757600080fd5b50565b612f0381612b9e565b8114612f0e57600080fd5b50565b612f1a81612bca565b8114612f2557600080fd5b5056fea264697066735822122091f477283b7383477c15a2062db756745ce7255f057d197d27d66dc0e7b430b064736f6c63430008070033",
  "linkReferences": {},
  "deployedLinkReferences": {}
}