{
  "_format": "hh-sol-artifact-1",
  "contractName": "CrossChainMessage",
  "sourceName": "contracts/CrossChainMessage.sol",
  "abi": [
    {
      "inputs": [
        {
          "internalType": "address",
          "name": "connectorAddress",
          "type": "address"
        },
        {
          "internalType": "address",
          "name": "zetaTokenAddress",
          "type": "address"
        },
        {
          "internalType": "address",
          "name": "zetaConsumerAddress",
          "type": "address"
        }
      ],
      "stateMutability": "nonpayable",
      "type": "constructor"
    },
    {
      "inputs": [],
      "name": "BlockHeightInFuture",
      "type": "error"
    },
    {
      "inputs": [],
      "name": "InsufficientValueProvided",
      "type": "error"
    },
    {
      "inputs": [],
      "name": "InvalidAddress",
      "type": "error"
    },
    {
      "inputs": [
        {
          "internalType": "address",
          "name": "caller",
          "type": "address"
        }
      ],
      "name": "InvalidCaller",
      "type": "error"
    },
    {
      "inputs": [],
      "name": "InvalidDestinationChainId",
      "type": "error"
    },
    {
      "inputs": [],
      "name": "InvalidGiveawayID",
      "type": "error"
    },
    {
      "inputs": [],
      "name": "InvalidMessageType",
      "type": "error"
    },
    {
      "inputs": [],
      "name": "InvalidZetaMessageCall",
      "type": "error"
    },
    {
      "inputs": [],
      "name": "InvalidZetaRevertCall",
      "type": "error"
    },
    {
      "inputs": [],
      "name": "MaxParticipantsGreaterThanZero",
      "type": "error"
    },
    {
      "inputs": [],
      "name": "NFTContractAddressNotZero",
      "type": "error"
    },
    {
      "inputs": [],
      "name": "PrizeAmountGreaterThanZero",
      "type": "error"
    },
    {
      "inputs": [],
      "name": "UserDoesNotOwnRequiredNFT",
      "type": "error"
    },
    {
      "anonymous": false,
      "inputs": [
        {
          "indexed": true,
          "internalType": "address",
          "name": "participant",
          "type": "address"
        },
        {
          "indexed": false,
          "internalType": "uint256",
          "name": "giveawayId",
          "type": "uint256"
        }
      ],
      "name": "ClaimedGiveaway",
      "type": "event"
    },
    {
      "anonymous": false,
      "inputs": [
        {
          "indexed": false,
          "internalType": "uint256",
          "name": "messageType",
          "type": "uint256"
        },
        {
          "indexed": false,
          "internalType": "uint256",
          "name": "giveawayId",
          "type": "uint256"
        },
        {
          "indexed": false,
          "internalType": "address",
          "name": "nftContract",
          "type": "address"
        }
      ],
      "name": "CrossChainMessageEvent",
      "type": "event"
    },
    {
      "anonymous": false,
      "inputs": [
        {
          "indexed": false,
          "internalType": "string",
          "name": "",
          "type": "string"
        }
      ],
      "name": "CrossChainMessageRevertedEvent",
      "type": "event"
    },
    {
      "anonymous": false,
      "inputs": [
        {
          "indexed": true,
          "internalType": "address",
          "name": "creator",
          "type": "address"
        },
        {
          "indexed": false,
          "internalType": "uint256",
          "name": "blockHeight",
          "type": "uint256"
        },
        {
          "indexed": false,
          "internalType": "uint256",
          "name": "prizeAmount",
          "type": "uint256"
        },
        {
          "indexed": false,
          "internalType": "uint256",
          "name": "maxParticipants",
          "type": "uint256"
        },
        {
          "indexed": false,
          "internalType": "address",
          "name": "nftContract",
          "type": "address"
        },
        {
          "indexed": false,
          "internalType": "uint256",
          "name": "giveawayId",
          "type": "uint256"
        }
      ],
      "name": "GiveawayCreated",
      "type": "event"
    },
    {
      "anonymous": false,
      "inputs": [
        {
          "indexed": true,
          "internalType": "address",
          "name": "previousOwner",
          "type": "address"
        },
        {
          "indexed": true,
          "internalType": "address",
          "name": "newOwner",
          "type": "address"
        }
      ],
      "name": "OwnershipTransferStarted",
      "type": "event"
    },
    {
      "anonymous": false,
      "inputs": [
        {
          "indexed": true,
          "internalType": "address",
          "name": "previousOwner",
          "type": "address"
        },
        {
          "indexed": true,
          "internalType": "address",
          "name": "newOwner",
          "type": "address"
        }
      ],
      "name": "OwnershipTransferred",
      "type": "event"
    },
    {
      "anonymous": false,
      "inputs": [
        {
          "indexed": true,
          "internalType": "uint256",
          "name": "giveawayId",
          "type": "uint256"
        },
        {
          "indexed": true,
          "internalType": "address",
          "name": "participant",
          "type": "address"
        }
      ],
      "name": "Participation",
      "type": "event"
    },
    {
      "anonymous": false,
      "inputs": [
        {
          "indexed": false,
          "internalType": "uint256",
          "name": "giveawayId",
          "type": "uint256"
        },
        {
          "indexed": false,
          "internalType": "address",
          "name": "nftContract",
          "type": "address"
        }
      ],
      "name": "RequirementSet",
      "type": "event"
    },
    {
      "inputs": [],
      "name": "acceptOwnership",
      "outputs": [],
      "stateMutability": "nonpayable",
      "type": "function"
    },
    {
      "inputs": [],
      "name": "connector",
      "outputs": [
        {
          "internalType": "contract ZetaConnector",
          "name": "",
          "type": "address"
        }
      ],
      "stateMutability": "view",
      "type": "function"
    },
    {
      "inputs": [
        {
          "internalType": "uint256",
          "name": "blockHeight",
          "type": "uint256"
        },
        {
          "internalType": "uint256",
          "name": "prizeAmount",
          "type": "uint256"
        },
        {
          "internalType": "uint256",
          "name": "maxParticipants",
          "type": "uint256"
        },
        {
          "internalType": "address",
          "name": "nftContract",
          "type": "address"
        },
        {
          "internalType": "uint256",
          "name": "destinationChainId",
          "type": "uint256"
        }
      ],
      "name": "createGiveaway",
      "outputs": [],
      "stateMutability": "payable",
      "type": "function"
    },
    {
      "inputs": [
        {
          "internalType": "uint256",
          "name": "giveawayId",
          "type": "uint256"
        }
      ],
      "name": "distributeRewards",
      "outputs": [],
      "stateMutability": "nonpayable",
      "type": "function"
    },
    {
      "inputs": [
        {
          "internalType": "uint256",
          "name": "giveawayId",
          "type": "uint256"
        }
      ],
      "name": "getParticipants",
      "outputs": [
        {
          "internalType": "address[]",
          "name": "",
          "type": "address[]"
        }
      ],
      "stateMutability": "view",
      "type": "function"
    },
    {
      "inputs": [],
      "name": "giveawayCounter",
      "outputs": [
        {
          "internalType": "uint256",
          "name": "",
          "type": "uint256"
        }
      ],
      "stateMutability": "view",
      "type": "function"
    },
    {
      "inputs": [
        {
          "internalType": "uint256",
          "name": "",
          "type": "uint256"
        }
      ],
      "name": "giveaways",
      "outputs": [
        {
          "internalType": "address",
          "name": "creator",
          "type": "address"
        },
        {
          "internalType": "uint256",
          "name": "blockHeight",
          "type": "uint256"
        },
        {
          "internalType": "uint256",
          "name": "giveawayId",
          "type": "uint256"
        },
        {
          "internalType": "uint256",
          "name": "prizeAmount",
          "type": "uint256"
        },
        {
          "internalType": "uint256",
          "name": "maxParticipants",
          "type": "uint256"
        },
        {
          "internalType": "address",
          "name": "nftContract",
          "type": "address"
        }
      ],
      "stateMutability": "view",
      "type": "function"
    },
    {
      "inputs": [
        {
          "internalType": "address",
          "name": "user",
          "type": "address"
        },
        {
          "internalType": "address",
          "name": "nftContract",
          "type": "address"
        }
      ],
      "name": "hasNFT",
      "outputs": [
        {
          "internalType": "bool",
          "name": "",
          "type": "bool"
        }
      ],
      "stateMutability": "view",
      "type": "function"
    },
    {
      "inputs": [
        {
          "internalType": "uint256",
          "name": "",
          "type": "uint256"
        }
      ],
      "name": "interactorsByChainId",
      "outputs": [
        {
          "internalType": "bytes",
          "name": "",
          "type": "bytes"
        }
      ],
      "stateMutability": "view",
      "type": "function"
    },
    {
      "inputs": [
        {
          "components": [
            {
              "internalType": "bytes",
              "name": "zetaTxSenderAddress",
              "type": "bytes"
            },
            {
              "internalType": "uint256",
              "name": "sourceChainId",
              "type": "uint256"
            },
            {
              "internalType": "address",
              "name": "destinationAddress",
              "type": "address"
            },
            {
              "internalType": "uint256",
              "name": "zetaValue",
              "type": "uint256"
            },
            {
              "internalType": "bytes",
              "name": "message",
              "type": "bytes"
            }
          ],
          "internalType": "struct ZetaInterfaces.ZetaMessage",
          "name": "zetaMessage",
          "type": "tuple"
        }
      ],
      "name": "onZetaMessage",
      "outputs": [],
      "stateMutability": "nonpayable",
      "type": "function"
    },
    {
      "inputs": [
        {
          "components": [
            {
              "internalType": "address",
              "name": "zetaTxSenderAddress",
              "type": "address"
            },
            {
              "internalType": "uint256",
              "name": "sourceChainId",
              "type": "uint256"
            },
            {
              "internalType": "bytes",
              "name": "destinationAddress",
              "type": "bytes"
            },
            {
              "internalType": "uint256",
              "name": "destinationChainId",
              "type": "uint256"
            },
            {
              "internalType": "uint256",
              "name": "remainingZetaValue",
              "type": "uint256"
            },
            {
              "internalType": "bytes",
              "name": "message",
              "type": "bytes"
            }
          ],
          "internalType": "struct ZetaInterfaces.ZetaRevert",
          "name": "zetaRevert",
          "type": "tuple"
        }
      ],
      "name": "onZetaRevert",
      "outputs": [],
      "stateMutability": "nonpayable",
      "type": "function"
    },
    {
      "inputs": [],
      "name": "owner",
      "outputs": [
        {
          "internalType": "address",
          "name": "",
          "type": "address"
        }
      ],
      "stateMutability": "view",
      "type": "function"
    },
    {
      "inputs": [
        {
          "internalType": "uint256",
          "name": "",
          "type": "uint256"
        }
      ],
      "name": "participantCounters",
      "outputs": [
        {
          "internalType": "uint256",
          "name": "",
          "type": "uint256"
        }
      ],
      "stateMutability": "view",
      "type": "function"
    },
    {
      "inputs": [
        {
          "internalType": "uint256",
          "name": "",
          "type": "uint256"
        },
        {
          "internalType": "uint256",
          "name": "",
          "type": "uint256"
        }
      ],
      "name": "participants",
      "outputs": [
        {
          "internalType": "address",
          "name": "",
          "type": "address"
        }
      ],
      "stateMutability": "view",
      "type": "function"
    },
    {
      "inputs": [
        {
          "internalType": "uint256",
          "name": "giveawayId",
          "type": "uint256"
        }
      ],
      "name": "participate",
      "outputs": [],
      "stateMutability": "payable",
      "type": "function"
    },
    {
      "inputs": [],
      "name": "pendingOwner",
      "outputs": [
        {
          "internalType": "address",
          "name": "",
          "type": "address"
        }
      ],
      "stateMutability": "view",
      "type": "function"
    },
    {
      "inputs": [],
      "name": "renounceOwnership",
      "outputs": [],
      "stateMutability": "nonpayable",
      "type": "function"
    },
    {
      "inputs": [
        {
          "internalType": "uint256",
          "name": "",
          "type": "uint256"
        }
      ],
      "name": "requirements",
      "outputs": [
        {
          "internalType": "address",
          "name": "",
          "type": "address"
        }
      ],
      "stateMutability": "view",
      "type": "function"
    },
    {
      "inputs": [
        {
          "internalType": "uint256",
          "name": "destinationChainId",
          "type": "uint256"
        },
        {
          "internalType": "bytes",
          "name": "contractAddress",
          "type": "bytes"
        }
      ],
      "name": "setInteractorByChainId",
      "outputs": [],
      "stateMutability": "nonpayable",
      "type": "function"
    },
    {
      "inputs": [
        {
          "internalType": "address",
          "name": "newOwner",
          "type": "address"
        }
      ],
      "name": "transferOwnership",
      "outputs": [],
      "stateMutability": "nonpayable",
      "type": "function"
    }
  ],
  "bytecode": "0x6101006040523480156200001257600080fd5b5060405162003214380380620032148339818101604052810190620000389190620002a1565b82620000596200004d6200018060201b60201c565b6200018860201b60201c565b600073ffffffffffffffffffffffffffffffffffffffff168173ffffffffffffffffffffffffffffffffffffffff161415620000c1576040517fe6c4247b00000000000000000000000000000000000000000000000000000000815260040160405180910390fd5b46608081815250508073ffffffffffffffffffffffffffffffffffffffff1660a08173ffffffffffffffffffffffffffffffffffffffff1660601b81525050508173ffffffffffffffffffffffffffffffffffffffff1660e08173ffffffffffffffffffffffffffffffffffffffff1660601b815250508073ffffffffffffffffffffffffffffffffffffffff1660c08173ffffffffffffffffffffffffffffffffffffffff1660601b81525050600060078190555050505062000350565b600033905090565b600160006101000a81549073ffffffffffffffffffffffffffffffffffffffff0219169055620001c381620001c660201b62001a6b1760201c565b50565b60008060009054906101000a900473ffffffffffffffffffffffffffffffffffffffff169050816000806101000a81548173ffffffffffffffffffffffffffffffffffffffff021916908373ffffffffffffffffffffffffffffffffffffffff1602179055508173ffffffffffffffffffffffffffffffffffffffff168173ffffffffffffffffffffffffffffffffffffffff167f8be0079c531659141344cd1fd0a4f28419497f9722a3daafe3b4186f6b6457e060405160405180910390a35050565b6000815190506200029b8162000336565b92915050565b600080600060608486031215620002bd57620002bc62000331565b5b6000620002cd868287016200028a565b9350506020620002e0868287016200028a565b9250506040620002f3868287016200028a565b9150509250925092565b60006200030a8262000311565b9050919050565b600073ffffffffffffffffffffffffffffffffffffffff82169050919050565b600080fd5b6200034181620002fd565b81146200034d57600080fd5b50565b60805160a05160601c60c05160601c60e05160601c612e4c620003c8600039600081816109020152818161102c01526114630152600081816107fe01526113b301526000818161093e015281816109d0015281816112190152818161149f015281816115310152611bb8015260005050612e4c6000f3fe60806040526004361061011f5760003560e01c806379ba5097116100a0578063a25a8f2311610064578063a25a8f23146103a8578063c1e3bd3e146103e5578063e30c397814610422578063f2fde38b1461044d578063f8b520b0146104765761011f565b806379ba5097146102e257806381fb1fb4146102f957806383f3084f14610336578063845c9306146103615780638da5cb5b1461037d5761011f565b80633e06df3d116100e75780633e06df3d1461020e5780633ff0693c146102505780634fd3f7d71461027957806359974e38146102a2578063715018a6146102cb5761011f565b806314780bb0146101245780631d5e9609146101615780632618143f1461018c57806337001185146101c95780633749c51a146101e5575b600080fd5b34801561013057600080fd5b5061014b60048036038101906101469190612084565b6104b3565b60405161015891906127ef565b60405180910390f35b34801561016d57600080fd5b506101766104cb565b60405161018391906127ef565b60405180910390f35b34801561019857600080fd5b506101b360048036038101906101ae9190612084565b6104d1565b6040516101c09190612680565b60405180910390f35b6101e360048036038101906101de91906121d1565b610571565b005b3480156101f157600080fd5b5061020c60048036038101906102079190611ff2565b610be0565b005b34801561021a57600080fd5b5061023560048036038101906102309190612084565b610d3f565b604051610247969594939291906125e2565b60405180910390f35b34801561025c57600080fd5b506102776004803603810190610272919061203b565b610dbb565b005b34801561028557600080fd5b506102a0600480360381019061029b91906120de565b610e98565b005b3480156102ae57600080fd5b506102c960048036038101906102c49190612084565b610ec8565b005b3480156102d757600080fd5b506102e0611134565b005b3480156102ee57600080fd5b506102f7611148565b005b34801561030557600080fd5b50610320600480360381019061031b919061213e565b6111d5565b60405161032d919061259e565b60405180910390f35b34801561034257600080fd5b5061034b611217565b60405161035891906126a2565b60405180910390f35b61037b60048036038101906103769190612084565b61123b565b005b34801561038957600080fd5b50610392611714565b60405161039f919061259e565b60405180910390f35b3480156103b457600080fd5b506103cf60048036038101906103ca9190612084565b61173d565b6040516103dc919061259e565b60405180910390f35b3480156103f157600080fd5b5061040c60048036038101906104079190612084565b611770565b6040516104199190612643565b60405180910390f35b34801561042e57600080fd5b50610437611892565b604051610444919061259e565b60405180910390f35b34801561045957600080fd5b50610474600480360381019061046f9190611f0f565b6118bc565b005b34801561048257600080fd5b5061049d60048036038101906104989190611f3c565b611969565b6040516104aa9190612665565b60405180910390f35b60066020528060005260406000206000915090505481565b60075481565b600260205280600052604060002060009150905080546104f090612b6b565b80601f016020809104026020016040519081016040528092919081815260200182805461051c90612b6b565b80156105695780601f1061053e57610100808354040283529160200191610569565b820191906000526020600020905b81548152906001019060200180831161054c57829003601f168201915b505050505081565b4385116105aa576040517ffb0bdf4100000000000000000000000000000000000000000000000000000000815260040160405180910390fd5b600084116105e4576040517ffc13a0f600000000000000000000000000000000000000000000000000000000815260040160405180910390fd5b6000831161061e576040517fedd80a0c00000000000000000000000000000000000000000000000000000000815260040160405180910390fd5b600073ffffffffffffffffffffffffffffffffffffffff168273ffffffffffffffffffffffffffffffffffffffff161415610685576040517f42ca7db300000000000000000000000000000000000000000000000000000000815260040160405180910390fd5b61068e81611b2f565b6106c4576040517f90eaaa7000000000000000000000000000000000000000000000000000000000815260040160405180910390fd5b6040518060c001604052803373ffffffffffffffffffffffffffffffffffffffff16815260200186815260200160075481526020018581526020018481526020018373ffffffffffffffffffffffffffffffffffffffff1681525060036000600754815260200190815260200160002060008201518160000160006101000a81548173ffffffffffffffffffffffffffffffffffffffff021916908373ffffffffffffffffffffffffffffffffffffffff1602179055506020820151816001015560408201518160020155606082015181600301556080820151816004015560a08201518160050160006101000a81548173ffffffffffffffffffffffffffffffffffffffff021916908373ffffffffffffffffffffffffffffffffffffffff16021790555090505060006729a2241af62c0000905060007f000000000000000000000000000000000000000000000000000000000000000073ffffffffffffffffffffffffffffffffffffffff1663013b2ff83430856040518463ffffffff1660e01b81526004016108589291906125b9565b6020604051808303818588803b15801561087157600080fd5b505af1158015610885573d6000803e3d6000fd5b50505050506040513d601f19601f820116820180604052508101906108aa91906120b1565b9050600085876108ba9190612a0e565b836108c591906129b8565b9050803411610900576040517fc43c9bbd00000000000000000000000000000000000000000000000000000000815260040160405180910390fd5b7f000000000000000000000000000000000000000000000000000000000000000073ffffffffffffffffffffffffffffffffffffffff1663095ea7b37f0000000000000000000000000000000000000000000000000000000000000000846040518363ffffffff1660e01b815260040161097b9291906125b9565b602060405180830381600087803b15801561099557600080fd5b505af11580156109a9573d6000803e3d6000fd5b505050506040513d601f19601f820116820180604052508101906109cd9190611f7c565b507f000000000000000000000000000000000000000000000000000000000000000073ffffffffffffffffffffffffffffffffffffffff1663ec0269016040518060c00160405280878152602001600260008981526020019081526020016000208054610a3990612b6b565b80601f0160208091040260200160405190810160405280929190818152602001828054610a6590612b6b565b8015610ab25780601f10610a8757610100808354040283529160200191610ab2565b820191906000526020600020905b815481529060010190602001808311610a9557829003601f168201915b50505050508152602001620493e0815260200160016007548a604051602001610add939291906126bd565b6040516020818303038152906040528152602001858152602001604051602001610b06906127ad565b6040516020818303038152906040528152506040518263ffffffff1660e01b8152600401610b3491906127cd565b600060405180830381600087803b158015610b4e57600080fd5b505af1158015610b62573d6000803e3d6000fd5b505050503373ffffffffffffffffffffffffffffffffffffffff167fa31b176d4dc2db03eb650f8afd4b02088ed6b1f7aa0a190c0c1833d124ffe21289898989600754604051610bb695949392919061280a565b60405180910390a260076000815480929190610bd190612bce565b91905055505050505050505050565b6000806000838060800190610bf5919061285d565b810190610c02919061217e565b9250925092506001831415610c6857806004600084815260200190815260200160002060006101000a81548173ffffffffffffffffffffffffffffffffffffffff021916908373ffffffffffffffffffffffffffffffffffffffff160217905550610d39565b6002831415610d06576000600660008481526020019081526020016000206000815480929190610c9790612bce565b9190505590508160056000858152602001908152602001600020600083815260200190815260200160002060006101000a81548173ffffffffffffffffffffffffffffffffffffffff021916908373ffffffffffffffffffffffffffffffffffffffff16021790555050610d38565b6040517f5b60892f00000000000000000000000000000000000000000000000000000000815260040160405180910390fd5b5b50505050565b60036020528060005260406000206000915090508060000160009054906101000a900473ffffffffffffffffffffffffffffffffffffffff16908060010154908060020154908060030154908060040154908060050160009054906101000a900473ffffffffffffffffffffffffffffffffffffffff16905086565b80610dc4611bb6565b3073ffffffffffffffffffffffffffffffffffffffff16816000016020810190610dee9190611f0f565b73ffffffffffffffffffffffffffffffffffffffff1614610e3b576040517fc03e9c3f00000000000000000000000000000000000000000000000000000000815260040160405180910390fd5b6000828060a00190610e4d919061285d565b810190610e5a9190611fa9565b90507f5e10fdf4af8efbf1252f727adce54e16f0d618219c3cb90d2b5fd1094bf7a7ea81604051610e8b919061272b565b60405180910390a1505050565b610ea0611c48565b8181600260008681526020019081526020016000209190610ec2929190611cff565b50505050565b6000600360008381526020019081526020016000206040518060c00160405290816000820160009054906101000a900473ffffffffffffffffffffffffffffffffffffffff1673ffffffffffffffffffffffffffffffffffffffff1673ffffffffffffffffffffffffffffffffffffffff168152602001600182015481526020016002820154815260200160038201548152602001600482015481526020016005820160009054906101000a900473ffffffffffffffffffffffffffffffffffffffff1673ffffffffffffffffffffffffffffffffffffffff1673ffffffffffffffffffffffffffffffffffffffff1681525050905060006006600084815260200190815260200160002054905060005b8181101561112e57600060056000868152602001908152602001600020600083815260200190815260200160002060009054906101000a900473ffffffffffffffffffffffffffffffffffffffff1690507f000000000000000000000000000000000000000000000000000000000000000073ffffffffffffffffffffffffffffffffffffffff1663a9059cbb8286606001516040518363ffffffff1660e01b81526004016110899291906125b9565b602060405180830381600087803b1580156110a357600080fd5b505af11580156110b7573d6000803e3d6000fd5b505050506040513d601f19601f820116820180604052508101906110db9190611f7c565b61111a576040517f08c379a00000000000000000000000000000000000000000000000000000000081526004016111119061276d565b60405180910390fd5b50808061112690612bce565b915050610fd9565b50505050565b61113c611c48565b6111466000611cc6565b565b6000611152611cf7565b90508073ffffffffffffffffffffffffffffffffffffffff16611173611892565b73ffffffffffffffffffffffffffffffffffffffff16146111c9576040517f08c379a00000000000000000000000000000000000000000000000000000000081526004016111c09061274d565b60405180910390fd5b6111d281611cc6565b50565b60056020528160005260406000206020528060005260406000206000915091509054906101000a900473ffffffffffffffffffffffffffffffffffffffff1681565b7f000000000000000000000000000000000000000000000000000000000000000081565b60006004600083815260200190815260200160002060009054906101000a900473ffffffffffffffffffffffffffffffffffffffff169050600073ffffffffffffffffffffffffffffffffffffffff168173ffffffffffffffffffffffffffffffffffffffff1614156112da576040517f7418493200000000000000000000000000000000000000000000000000000000815260040160405180910390fd5b600081905060008173ffffffffffffffffffffffffffffffffffffffff166370a08231336040518263ffffffff1660e01b815260040161131a919061259e565b60206040518083038186803b15801561133257600080fd5b505afa158015611346573d6000803e3d6000fd5b505050506040513d601f19601f8201168201806040525081019061136a91906120b1565b14156113a2576040517f250a3b6100000000000000000000000000000000000000000000000000000000815260040160405180910390fd5b6000671bc16d674ec80000905060007f000000000000000000000000000000000000000000000000000000000000000073ffffffffffffffffffffffffffffffffffffffff1663013b2ff83430856040518463ffffffff1660e01b815260040161140d9291906125b9565b6020604051808303818588803b15801561142657600080fd5b505af115801561143a573d6000803e3d6000fd5b50505050506040513d601f19601f8201168201806040525081019061145f91906120b1565b90507f000000000000000000000000000000000000000000000000000000000000000073ffffffffffffffffffffffffffffffffffffffff1663095ea7b37f0000000000000000000000000000000000000000000000000000000000000000836040518363ffffffff1660e01b81526004016114dc9291906125b9565b602060405180830381600087803b1580156114f657600080fd5b505af115801561150a573d6000803e3d6000fd5b505050506040513d601f19601f8201168201806040525081019061152e9190611f7c565b507f000000000000000000000000000000000000000000000000000000000000000073ffffffffffffffffffffffffffffffffffffffff1663ec0269016040518060c00160405280611b59815260200160026000611b598152602001908152602001600020805461159e90612b6b565b80601f01602080910402602001604051908101604052809291908181526020018280546115ca90612b6b565b80156116175780601f106115ec57610100808354040283529160200191611617565b820191906000526020600020905b8154815290600101906020018083116115fa57829003601f168201915b50505050508152602001620493e0815260200160028933604051602001611640939291906126f4565b6040516020818303038152906040528152602001848152602001604051602001611669906127ad565b6040516020818303038152906040528152506040518263ffffffff1660e01b815260040161169791906127cd565b600060405180830381600087803b1580156116b157600080fd5b505af11580156116c5573d6000803e3d6000fd5b505050503373ffffffffffffffffffffffffffffffffffffffff16857f1f0f4be2dd0b92ad2d02b91e2ba37906104ff41f524d16b6da2b09068cc57e7160405160405180910390a35050505050565b60008060009054906101000a900473ffffffffffffffffffffffffffffffffffffffff16905090565b60046020528060005260406000206000915054906101000a900473ffffffffffffffffffffffffffffffffffffffff1681565b606060006006600084815260200190815260200160002054905060008167ffffffffffffffff8111156117a6576117a5612ca4565b5b6040519080825280602002602001820160405280156117d45781602001602082028036833780820191505090505b50905060005b828110156118875760056000868152602001908152602001600020600082815260200190815260200160002060009054906101000a900473ffffffffffffffffffffffffffffffffffffffff1682828151811061183a57611839612c75565b5b602002602001019073ffffffffffffffffffffffffffffffffffffffff16908173ffffffffffffffffffffffffffffffffffffffff1681525050808061187f90612bce565b9150506117da565b508092505050919050565b6000600160009054906101000a900473ffffffffffffffffffffffffffffffffffffffff16905090565b6118c4611c48565b80600160006101000a81548173ffffffffffffffffffffffffffffffffffffffff021916908373ffffffffffffffffffffffffffffffffffffffff1602179055508073ffffffffffffffffffffffffffffffffffffffff16611924611714565b73ffffffffffffffffffffffffffffffffffffffff167f38d16b8cac22d99fc7c124b9cd0de2d3fa1faef420bfe791d8c362d765e2270060405160405180910390a350565b60008073ffffffffffffffffffffffffffffffffffffffff168273ffffffffffffffffffffffffffffffffffffffff1614156119d1576040517f42ca7db300000000000000000000000000000000000000000000000000000000815260040160405180910390fd5b600082905060008173ffffffffffffffffffffffffffffffffffffffff166370a08231866040518263ffffffff1660e01b8152600401611a11919061259e565b60206040518083038186803b158015611a2957600080fd5b505afa158015611a3d573d6000803e3d6000fd5b505050506040513d601f19601f82011682018060405250810190611a6191906120b1565b1191505092915050565b60008060009054906101000a900473ffffffffffffffffffffffffffffffffffffffff169050816000806101000a81548173ffffffffffffffffffffffffffffffffffffffff021916908373ffffffffffffffffffffffffffffffffffffffff1602179055508173ffffffffffffffffffffffffffffffffffffffff168173ffffffffffffffffffffffffffffffffffffffff167f8be0079c531659141344cd1fd0a4f28419497f9722a3daafe3b4186f6b6457e060405160405180910390a35050565b60008067ffffffffffffffff811115611b4b57611b4a612ca4565b5b6040519080825280601f01601f191660200182016040528015611b7d5781602001600182028036833780820191505090505b508051906020012060026000848152602001908152602001600020604051611ba59190612587565b604051809103902014159050919050565b7f000000000000000000000000000000000000000000000000000000000000000073ffffffffffffffffffffffffffffffffffffffff163373ffffffffffffffffffffffffffffffffffffffff1614611c4657336040517fcbd9d2e0000000000000000000000000000000000000000000000000000000008152600401611c3d919061259e565b60405180910390fd5b565b611c50611cf7565b73ffffffffffffffffffffffffffffffffffffffff16611c6e611714565b73ffffffffffffffffffffffffffffffffffffffff1614611cc4576040517f08c379a0000000000000000000000000000000000000000000000000000000008152600401611cbb9061278d565b60405180910390fd5b565b600160006101000a81549073ffffffffffffffffffffffffffffffffffffffff0219169055611cf481611a6b565b50565b600033905090565b828054611d0b90612b6b565b90600052602060002090601f016020900481019282611d2d5760008555611d74565b82601f10611d4657803560ff1916838001178555611d74565b82800160010185558215611d74579182015b82811115611d73578235825591602001919060010190611d58565b5b509050611d819190611d85565b5090565b5b80821115611d9e576000816000905550600101611d86565b5090565b6000611db5611db0846128e5565b6128c0565b905082815260208101848484011115611dd157611dd0612cf6565b5b611ddc848285612b29565b509392505050565b600081359050611df381612dba565b92915050565b600081359050611e0881612dd1565b92915050565b600081519050611e1d81612de8565b92915050565b60008083601f840112611e3957611e38612cd8565b5b8235905067ffffffffffffffff811115611e5657611e55612cd3565b5b602083019150836001820283011115611e7257611e71612cec565b5b9250929050565b600082601f830112611e8e57611e8d612cd8565b5b8135611e9e848260208601611da2565b91505092915050565b600060a08284031215611ebd57611ebc612ce2565b5b81905092915050565b600060c08284031215611edc57611edb612ce2565b5b81905092915050565b600081359050611ef481612dff565b92915050565b600081519050611f0981612dff565b92915050565b600060208284031215611f2557611f24612d00565b5b6000611f3384828501611de4565b91505092915050565b60008060408385031215611f5357611f52612d00565b5b6000611f6185828601611de4565b9250506020611f7285828601611de4565b9150509250929050565b600060208284031215611f9257611f91612d00565b5b6000611fa084828501611e0e565b91505092915050565b600060208284031215611fbf57611fbe612d00565b5b600082013567ffffffffffffffff811115611fdd57611fdc612cfb565b5b611fe984828501611e79565b91505092915050565b60006020828403121561200857612007612d00565b5b600082013567ffffffffffffffff81111561202657612025612cfb565b5b61203284828501611ea7565b91505092915050565b60006020828403121561205157612050612d00565b5b600082013567ffffffffffffffff81111561206f5761206e612cfb565b5b61207b84828501611ec6565b91505092915050565b60006020828403121561209a57612099612d00565b5b60006120a884828501611ee5565b91505092915050565b6000602082840312156120c7576120c6612d00565b5b60006120d584828501611efa565b91505092915050565b6000806000604084860312156120f7576120f6612d00565b5b600061210586828701611ee5565b935050602084013567ffffffffffffffff81111561212657612125612cfb565b5b61213286828701611e23565b92509250509250925092565b6000806040838503121561215557612154612d00565b5b600061216385828601611ee5565b925050602061217485828601611ee5565b9150509250929050565b60008060006060848603121561219757612196612d00565b5b60006121a586828701611ee5565b93505060206121b686828701611ee5565b92505060406121c786828701611df9565b9150509250925092565b600080600080600060a086880312156121ed576121ec612d00565b5b60006121fb88828901611ee5565b955050602061220c88828901611ee5565b945050604061221d88828901611ee5565b935050606061222e88828901611de4565b925050608061223f88828901611ee5565b9150509295509295909350565b60006122588383612264565b60208301905092915050565b61226d81612a68565b82525050565b61227c81612a68565b82525050565b600061228d8261293b565b6122978185612969565b93506122a283612916565b8060005b838110156122d35781516122ba888261224c565b97506122c58361295c565b9250506001810190506122a6565b5085935050505092915050565b6122e981612a8c565b82525050565b60006122fa82612946565b612304818561297a565b9350612314818560208601612b38565b61231d81612d05565b840191505092915050565b600061233382612946565b61233d818561298b565b935061234d818560208601612b38565b61235681612d05565b840191505092915050565b6000815461236e81612b6b565b612378818661299c565b9450600182166000811461239357600181146123a4576123d7565b60ff198316865281860193506123d7565b6123ad85612926565b60005b838110156123cf578154818901526001820191506020810190506123b0565b838801955050505b50505092915050565b6123e981612acf565b82525050565b6123f881612ae1565b82525050565b61240781612af3565b82525050565b600061241882612951565b61242281856129a7565b9350612432818560208601612b38565b61243b81612d05565b840191505092915050565b60006124536029836129a7565b915061245e82612d16565b604082019050919050565b6000612476600f836129a7565b915061248182612d65565b602082019050919050565b60006124996020836129a7565b91506124a482612d8e565b602082019050919050565b60006124bc6000836129a7565b91506124c782612db7565b600082019050919050565b600060c0830160008301516124ea6000860182612569565b506020830151848203602086015261250282826122ef565b91505060408301516125176040860182612569565b506060830151848203606086015261252f82826122ef565b91505060808301516125446080860182612569565b5060a083015184820360a086015261255c82826122ef565b9150508091505092915050565b61257281612ab8565b82525050565b61258181612ab8565b82525050565b60006125938284612361565b915081905092915050565b60006020820190506125b36000830184612273565b92915050565b60006040820190506125ce6000830185612273565b6125db6020830184612578565b9392505050565b600060c0820190506125f76000830189612273565b6126046020830188612578565b6126116040830187612578565b61261e6060830186612578565b61262b6080830185612578565b61263860a0830184612273565b979650505050505050565b6000602082019050818103600083015261265d8184612282565b905092915050565b600060208201905061267a60008301846122e0565b92915050565b6000602082019050818103600083015261269a8184612328565b905092915050565b60006020820190506126b760008301846123e0565b92915050565b60006060820190506126d260008301866123ef565b6126df6020830185612578565b6126ec6040830184612273565b949350505050565b600060608201905061270960008301866123fe565b6127166020830185612578565b6127236040830184612273565b949350505050565b60006020820190508181036000830152612745818461240d565b905092915050565b6000602082019050818103600083015261276681612446565b9050919050565b6000602082019050818103600083015261278681612469565b9050919050565b600060208201905081810360008301526127a68161248c565b9050919050565b600060208201905081810360008301526127c6816124af565b9050919050565b600060208201905081810360008301526127e781846124d2565b905092915050565b60006020820190506128046000830184612578565b92915050565b600060a08201905061281f6000830188612578565b61282c6020830187612578565b6128396040830186612578565b6128466060830185612273565b6128536080830184612578565b9695505050505050565b6000808335600160200384360303811261287a57612879612ce7565b5b80840192508235915067ffffffffffffffff82111561289c5761289b612cdd565b5b6020830192506001820236038313156128b8576128b7612cf1565b5b509250929050565b60006128ca6128db565b90506128d68282612b9d565b919050565b6000604051905090565b600067ffffffffffffffff821115612900576128ff612ca4565b5b61290982612d05565b9050602081019050919050565b6000819050602082019050919050565b60008190508160005260206000209050919050565b600081519050919050565b600081519050919050565b600081519050919050565b6000602082019050919050565b600082825260208201905092915050565b600082825260208201905092915050565b600082825260208201905092915050565b600081905092915050565b600082825260208201905092915050565b60006129c382612ab8565b91506129ce83612ab8565b9250827fffffffffffffffffffffffffffffffffffffffffffffffffffffffffffffffff03821115612a0357612a02612c17565b5b828201905092915050565b6000612a1982612ab8565b9150612a2483612ab8565b9250817fffffffffffffffffffffffffffffffffffffffffffffffffffffffffffffffff0483118215151615612a5d57612a5c612c17565b5b828202905092915050565b6000612a7382612a98565b9050919050565b6000612a8582612a98565b9050919050565b60008115159050919050565b600073ffffffffffffffffffffffffffffffffffffffff82169050919050565b6000819050919050565b600060ff82169050919050565b6000612ada82612b05565b9050919050565b6000612aec82612ac2565b9050919050565b6000612afe82612ac2565b9050919050565b6000612b1082612b17565b9050919050565b6000612b2282612a98565b9050919050565b82818337600083830152505050565b60005b83811015612b56578082015181840152602081019050612b3b565b83811115612b65576000848401525b50505050565b60006002820490506001821680612b8357607f821691505b60208210811415612b9757612b96612c46565b5b50919050565b612ba682612d05565b810181811067ffffffffffffffff82111715612bc557612bc4612ca4565b5b80604052505050565b6000612bd982612ab8565b91507fffffffffffffffffffffffffffffffffffffffffffffffffffffffffffffffff821415612c0c57612c0b612c17565b5b600182019050919050565b7f4e487b7100000000000000000000000000000000000000000000000000000000600052601160045260246000fd5b7f4e487b7100000000000000000000000000000000000000000000000000000000600052602260045260246000fd5b7f4e487b7100000000000000000000000000000000000000000000000000000000600052603260045260246000fd5b7f4e487b7100000000000000000000000000000000000000000000000000000000600052604160045260246000fd5b600080fd5b600080fd5b600080fd5b600080fd5b600080fd5b600080fd5b600080fd5b600080fd5b600080fd5b600080fd5b6000601f19601f8301169050919050565b7f4f776e61626c6532537465703a2063616c6c6572206973206e6f74207468652060008201527f6e6577206f776e65720000000000000000000000000000000000000000000000602082015250565b7f5472616e73666572206661696c65640000000000000000000000000000000000600082015250565b7f4f776e61626c653a2063616c6c6572206973206e6f7420746865206f776e6572600082015250565b50565b612dc381612a68565b8114612dce57600080fd5b50565b612dda81612a7a565b8114612de557600080fd5b50565b612df181612a8c565b8114612dfc57600080fd5b50565b612e0881612ab8565b8114612e1357600080fd5b5056fea26469706673582212207f2fa51092acea2204bc26f14c86f7ebd607b03973568b3b8bb9aaee1614abb964736f6c63430008070033",
  "linkReferences": {},
  "deployedLinkReferences": {}
}